{
  "_format": "hh-sol-artifact-1",
  "contractName": "ObscuraCreditMarket",
  "sourceName": "contracts/credit/ObscuraCreditMarket.sol",
  "abi": [
    {
      "inputs": [
        {
          "internalType": "address",
          "name": "_loanAsset",
          "type": "address"
        },
        {
          "internalType": "address",
          "name": "_collateralAsset",
          "type": "address"
        },
        {
          "internalType": "address",
          "name": "_oracle",
          "type": "address"
        },
        {
          "internalType": "address",
          "name": "_irm",
          "type": "address"
        },
        {
          "internalType": "uint64",
          "name": "_lltvBps",
          "type": "uint64"
        },
        {
          "internalType": "uint64",
          "name": "_liqBonusBps",
          "type": "uint64"
        },
        {
          "internalType": "uint64",
          "name": "_liqThresholdBps",
          "type": "uint64"
        }
      ],
      "stateMutability": "nonpayable",
      "type": "constructor"
    },
    {
      "inputs": [
        {
          "internalType": "uint8",
          "name": "got",
          "type": "uint8"
        },
        {
          "internalType": "uint8",
          "name": "expected",
          "type": "uint8"
        }
      ],
      "name": "InvalidEncryptedInput",
      "type": "error"
    },
    {
      "inputs": [],
      "name": "NotAuctionEngine",
      "type": "error"
    },
    {
      "inputs": [],
      "name": "NotFactory",
      "type": "error"
    },
    {
      "inputs": [
        {
          "internalType": "int32",
          "name": "value",
          "type": "int32"
        }
      ],
      "name": "SecurityZoneOutOfBounds",
      "type": "error"
    },
    {
      "inputs": [],
      "name": "WrongCaller",
      "type": "error"
    },
    {
      "anonymous": false,
      "inputs": [
        {
          "indexed": false,
          "internalType": "uint128",
          "name": "newTotalBorrowAssets",
          "type": "uint128"
        },
        {
          "indexed": false,
          "internalType": "uint128",
          "name": "ts",
          "type": "uint128"
        }
      ],
      "name": "Accrued",
      "type": "event"
    },
    {
      "anonymous": false,
      "inputs": [
        {
          "indexed": true,
          "internalType": "address",
          "name": "engine",
          "type": "address"
        }
      ],
      "name": "AuctionEngineSet",
      "type": "event"
    },
    {
      "anonymous": false,
      "inputs": [
        {
          "indexed": true,
          "internalType": "address",
          "name": "user",
          "type": "address"
        }
      ],
      "name": "Borrowed",
      "type": "event"
    },
    {
      "anonymous": false,
      "inputs": [
        {
          "indexed": true,
          "internalType": "address",
          "name": "user",
          "type": "address"
        }
      ],
      "name": "CollateralSupplied",
      "type": "event"
    },
    {
      "anonymous": false,
      "inputs": [
        {
          "indexed": true,
          "internalType": "address",
          "name": "user",
          "type": "address"
        }
      ],
      "name": "CollateralWithdrawn",
      "type": "event"
    },
    {
      "anonymous": false,
      "inputs": [
        {
          "indexed": true,
          "internalType": "address",
          "name": "borrower",
          "type": "address"
        },
        {
          "indexed": true,
          "internalType": "uint256",
          "name": "auctionId",
          "type": "uint256"
        }
      ],
      "name": "LiquidationOpened",
      "type": "event"
    },
    {
      "anonymous": false,
      "inputs": [
        {
          "indexed": true,
          "internalType": "address",
          "name": "user",
          "type": "address"
        }
      ],
      "name": "Repaid",
      "type": "event"
    },
    {
      "anonymous": false,
      "inputs": [
        {
          "indexed": true,
          "internalType": "address",
          "name": "user",
          "type": "address"
        }
      ],
      "name": "Supplied",
      "type": "event"
    },
    {
      "anonymous": false,
      "inputs": [
        {
          "indexed": true,
          "internalType": "address",
          "name": "user",
          "type": "address"
        }
      ],
      "name": "Withdrew",
      "type": "event"
    },
    {
      "inputs": [],
      "name": "accrueInterest",
      "outputs": [],
      "stateMutability": "nonpayable",
      "type": "function"
    },
    {
      "inputs": [
        {
          "internalType": "address",
          "name": "borrower",
          "type": "address"
        },
        {
          "internalType": "uint64",
          "name": "seizedColl",
          "type": "uint64"
        },
        {
          "internalType": "uint64",
          "name": "repaidDebt",
          "type": "uint64"
        }
      ],
      "name": "applyLiquidation",
      "outputs": [],
      "stateMutability": "nonpayable",
      "type": "function"
    },
    {
      "inputs": [],
      "name": "auctionEngine",
      "outputs": [
        {
          "internalType": "address",
          "name": "",
          "type": "address"
        }
      ],
      "stateMutability": "view",
      "type": "function"
    },
    {
      "inputs": [
        {
          "internalType": "uint64",
          "name": "amtPlain",
          "type": "uint64"
        },
        {
          "components": [
            {
              "internalType": "uint256",
              "name": "ctHash",
              "type": "uint256"
            },
            {
              "internalType": "uint8",
              "name": "securityZone",
              "type": "uint8"
            },
            {
              "internalType": "uint8",
              "name": "utype",
              "type": "uint8"
            },
            {
              "internalType": "bytes",
              "name": "signature",
              "type": "bytes"
            }
          ],
          "internalType": "struct InEuint64",
          "name": "encAmt",
          "type": "tuple"
        }
      ],
      "name": "borrow",
      "outputs": [],
      "stateMutability": "nonpayable",
      "type": "function"
    },
    {
      "inputs": [
        {
          "internalType": "uint256",
          "name": "i",
          "type": "uint256"
        }
      ],
      "name": "borrowerAt",
      "outputs": [
        {
          "internalType": "address",
          "name": "",
          "type": "address"
        }
      ],
      "stateMutability": "view",
      "type": "function"
    },
    {
      "inputs": [],
      "name": "borrowersLength",
      "outputs": [
        {
          "internalType": "uint256",
          "name": "",
          "type": "uint256"
        }
      ],
      "stateMutability": "view",
      "type": "function"
    },
    {
      "inputs": [],
      "name": "collateralAsset",
      "outputs": [
        {
          "internalType": "address",
          "name": "",
          "type": "address"
        }
      ],
      "stateMutability": "view",
      "type": "function"
    },
    {
      "inputs": [],
      "name": "factory",
      "outputs": [
        {
          "internalType": "address",
          "name": "",
          "type": "address"
        }
      ],
      "stateMutability": "view",
      "type": "function"
    },
    {
      "inputs": [
        {
          "internalType": "address",
          "name": "u",
          "type": "address"
        }
      ],
      "name": "getEncryptedSupplyShares",
      "outputs": [
        {
          "internalType": "euint64",
          "name": "",
          "type": "bytes32"
        }
      ],
      "stateMutability": "view",
      "type": "function"
    },
    {
      "inputs": [
        {
          "internalType": "address",
          "name": "user",
          "type": "address"
        }
      ],
      "name": "getPlainBorrow",
      "outputs": [
        {
          "internalType": "uint128",
          "name": "",
          "type": "uint128"
        }
      ],
      "stateMutability": "view",
      "type": "function"
    },
    {
      "inputs": [
        {
          "internalType": "address",
          "name": "user",
          "type": "address"
        }
      ],
      "name": "getPlainCollateral",
      "outputs": [
        {
          "internalType": "uint128",
          "name": "",
          "type": "uint128"
        }
      ],
      "stateMutability": "view",
      "type": "function"
    },
    {
      "inputs": [
        {
          "internalType": "address",
          "name": "user",
          "type": "address"
        }
      ],
      "name": "getPosition",
      "outputs": [
        {
          "internalType": "euint64",
          "name": "encSupplyShares",
          "type": "bytes32"
        },
        {
          "internalType": "euint64",
          "name": "borrowShares",
          "type": "bytes32"
        },
        {
          "internalType": "euint64",
          "name": "collateral",
          "type": "bytes32"
        },
        {
          "internalType": "eaddress",
          "name": "disburseTo",
          "type": "bytes32"
        }
      ],
      "stateMutability": "view",
      "type": "function"
    },
    {
      "inputs": [
        {
          "internalType": "address",
          "name": "",
          "type": "address"
        }
      ],
      "name": "hasBorrow",
      "outputs": [
        {
          "internalType": "bool",
          "name": "",
          "type": "bool"
        }
      ],
      "stateMutability": "view",
      "type": "function"
    },
    {
      "inputs": [],
      "name": "irm",
      "outputs": [
        {
          "internalType": "address",
          "name": "",
          "type": "address"
        }
      ],
      "stateMutability": "view",
      "type": "function"
    },
    {
      "inputs": [
        {
          "internalType": "address",
          "name": "",
          "type": "address"
        }
      ],
      "name": "isRepayRouter",
      "outputs": [
        {
          "internalType": "bool",
          "name": "",
          "type": "bool"
        }
      ],
      "stateMutability": "view",
      "type": "function"
    },
    {
      "inputs": [],
      "name": "lastAccrualTs",
      "outputs": [
        {
          "internalType": "uint128",
          "name": "",
          "type": "uint128"
        }
      ],
      "stateMutability": "view",
      "type": "function"
    },
    {
      "inputs": [],
      "name": "liqBonusBps",
      "outputs": [
        {
          "internalType": "uint64",
          "name": "",
          "type": "uint64"
        }
      ],
      "stateMutability": "view",
      "type": "function"
    },
    {
      "inputs": [],
      "name": "liqThresholdBps",
      "outputs": [
        {
          "internalType": "uint64",
          "name": "",
          "type": "uint64"
        }
      ],
      "stateMutability": "view",
      "type": "function"
    },
    {
      "inputs": [
        {
          "internalType": "address",
          "name": "borrower",
          "type": "address"
        }
      ],
      "name": "liquidationOpen",
      "outputs": [
        {
          "internalType": "uint256",
          "name": "auctionId",
          "type": "uint256"
        }
      ],
      "stateMutability": "nonpayable",
      "type": "function"
    },
    {
      "inputs": [],
      "name": "lltvBps",
      "outputs": [
        {
          "internalType": "uint64",
          "name": "",
          "type": "uint64"
        }
      ],
      "stateMutability": "view",
      "type": "function"
    },
    {
      "inputs": [],
      "name": "loanAsset",
      "outputs": [
        {
          "internalType": "address",
          "name": "",
          "type": "address"
        }
      ],
      "stateMutability": "view",
      "type": "function"
    },
    {
      "inputs": [
        {
          "internalType": "address",
          "name": "user",
          "type": "address"
        }
      ],
      "name": "maxBorrowable",
      "outputs": [
        {
          "internalType": "uint128",
          "name": "",
          "type": "uint128"
        }
      ],
      "stateMutability": "view",
      "type": "function"
    },
    {
      "inputs": [
        {
          "internalType": "uint64",
          "name": "amtPlain",
          "type": "uint64"
        }
      ],
      "name": "notifySupply",
      "outputs": [],
      "stateMutability": "nonpayable",
      "type": "function"
    },
    {
      "inputs": [],
      "name": "oracle",
      "outputs": [
        {
          "internalType": "address",
          "name": "",
          "type": "address"
        }
      ],
      "stateMutability": "view",
      "type": "function"
    },
    {
      "inputs": [
        {
          "internalType": "uint64",
          "name": "amtPlain",
          "type": "uint64"
        },
        {
          "components": [
            {
              "internalType": "uint256",
              "name": "ctHash",
              "type": "uint256"
            },
            {
              "internalType": "uint8",
              "name": "securityZone",
              "type": "uint8"
            },
            {
              "internalType": "uint8",
              "name": "utype",
              "type": "uint8"
            },
            {
              "internalType": "bytes",
              "name": "signature",
              "type": "bytes"
            }
          ],
          "internalType": "struct InEuint64",
          "name": "encAmt",
          "type": "tuple"
        }
      ],
      "name": "repay",
      "outputs": [],
      "stateMutability": "nonpayable",
      "type": "function"
    },
    {
      "inputs": [
        {
          "internalType": "address",
          "name": "borrower",
          "type": "address"
        },
        {
          "internalType": "uint64",
          "name": "amtPlain",
          "type": "uint64"
        },
        {
          "internalType": "euint64",
          "name": "handle",
          "type": "bytes32"
        }
      ],
      "name": "repayFromHook",
      "outputs": [],
      "stateMutability": "nonpayable",
      "type": "function"
    },
    {
      "inputs": [
        {
          "internalType": "address",
          "name": "_engine",
          "type": "address"
        }
      ],
      "name": "setAuctionEngine",
      "outputs": [],
      "stateMutability": "nonpayable",
      "type": "function"
    },
    {
      "inputs": [
        {
          "internalType": "address",
          "name": "router",
          "type": "address"
        },
        {
          "internalType": "bool",
          "name": "ok",
          "type": "bool"
        }
      ],
      "name": "setRepayRouter",
      "outputs": [],
      "stateMutability": "nonpayable",
      "type": "function"
    },
    {
      "inputs": [
        {
          "internalType": "uint64",
          "name": "amtPlain",
          "type": "uint64"
        },
        {
          "components": [
            {
              "internalType": "uint256",
              "name": "ctHash",
              "type": "uint256"
            },
            {
              "internalType": "uint8",
              "name": "securityZone",
              "type": "uint8"
            },
            {
              "internalType": "uint8",
              "name": "utype",
              "type": "uint8"
            },
            {
              "internalType": "bytes",
              "name": "signature",
              "type": "bytes"
            }
          ],
          "internalType": "struct InEuint64",
          "name": "encAmt",
          "type": "tuple"
        }
      ],
      "name": "supply",
      "outputs": [],
      "stateMutability": "nonpayable",
      "type": "function"
    },
    {
      "inputs": [
        {
          "internalType": "uint64",
          "name": "amtPlain",
          "type": "uint64"
        },
        {
          "components": [
            {
              "internalType": "uint256",
              "name": "ctHash",
              "type": "uint256"
            },
            {
              "internalType": "uint8",
              "name": "securityZone",
              "type": "uint8"
            },
            {
              "internalType": "uint8",
              "name": "utype",
              "type": "uint8"
            },
            {
              "internalType": "bytes",
              "name": "signature",
              "type": "bytes"
            }
          ],
          "internalType": "struct InEuint64",
          "name": "encAmt",
          "type": "tuple"
        }
      ],
      "name": "supplyCollateral",
      "outputs": [],
      "stateMutability": "nonpayable",
      "type": "function"
    },
    {
      "inputs": [
        {
          "internalType": "address",
          "name": "borrower",
          "type": "address"
        },
        {
          "internalType": "uint64",
          "name": "amtPlain",
          "type": "uint64"
        },
        {
          "internalType": "euint64",
          "name": "handle",
          "type": "bytes32"
        }
      ],
      "name": "supplyCollateralFromHook",
      "outputs": [],
      "stateMutability": "nonpayable",
      "type": "function"
    },
    {
      "inputs": [],
      "name": "totalBorrowAssets",
      "outputs": [
        {
          "internalType": "uint128",
          "name": "",
          "type": "uint128"
        }
      ],
      "stateMutability": "view",
      "type": "function"
    },
    {
      "inputs": [],
      "name": "totalSupplyAssets",
      "outputs": [
        {
          "internalType": "uint128",
          "name": "",
          "type": "uint128"
        }
      ],
      "stateMutability": "view",
      "type": "function"
    },
    {
      "inputs": [],
      "name": "utilizationBps",
      "outputs": [
        {
          "internalType": "uint256",
          "name": "",
          "type": "uint256"
        }
      ],
      "stateMutability": "view",
      "type": "function"
    },
    {
      "inputs": [
        {
          "internalType": "uint64",
          "name": "amtPlain",
          "type": "uint64"
        }
      ],
      "name": "withdraw",
      "outputs": [],
      "stateMutability": "nonpayable",
      "type": "function"
    },
    {
      "inputs": [
        {
          "internalType": "uint64",
          "name": "amtPlain",
          "type": "uint64"
        },
        {
          "components": [
            {
              "internalType": "uint256",
              "name": "ctHash",
              "type": "uint256"
            },
            {
              "internalType": "uint8",
              "name": "securityZone",
              "type": "uint8"
            },
            {
              "internalType": "uint8",
              "name": "utype",
              "type": "uint8"
            },
            {
              "internalType": "bytes",
              "name": "signature",
              "type": "bytes"
            }
          ],
          "internalType": "struct InEuint64",
          "name": "encAmt",
          "type": "tuple"
        }
      ],
      "name": "withdrawCollateral",
      "outputs": [],
      "stateMutability": "nonpayable",
      "type": "function"
    },
    {
      "inputs": [
        {
          "internalType": "uint64",
          "name": "amtPlain",
          "type": "uint64"
        }
      ],
      "name": "withdrawToVault",
      "outputs": [],
      "stateMutability": "nonpayable",
      "type": "function"
    }
  ],
  "bytecode": "0x610180604090808252346103575760e081612b1c80380380916100228285610494565b83398101031261035757610035816104b7565b916020926100448484016104b7565b916100508185016104b7565b9161005d606086016104b7565b9561006a608087016104cb565b9661008360c061007c60a08a016104cb565b98016104cb565b946001600160a01b038481161515908161043e575b5015610414576001600160401b03898116979088151580610409575b156103df5787169488861015806103d3575b156103a95760805260a05260c05260e05261010096875261012095865261014093845233610160908152600580546001600160801b031916426001600160801b0316178155845191966101188361044a565b5f835285519161012783610479565b60038352606036868501375f61013c8461066c565b52806101478461068d565b525f6101528461069d565b528651918261019a610187631888debd60e01b97888452856004850152601a6024850152608060448501526084840190610639565b6003199687848303016064850152610639565b0392868173ea30c4b8b44078bbf8a6ef5b9f1ec1626c7848d995815f885af190811561039f57908795949392915f9161036c575b50956101f56101ec5f936101e78a6102689b87556104df565b61054c565b806001556104df565b6102778a51956102048761044a565b8387528b5161021281610479565b600381526060368a8301376127106102298261066c565b52856102348261068d565b528461023f8261069d565b528c51998a988997889687526004870152601a6024870152608060448701526084860190610639565b91848303016064850152610639565b03925af1918215610362575f9261032e575b50506102a8916101e78261029f936002556104df565b806003556104df565b519261246e94856106ae8639608051858181610a64015281816113000152611728015260a0518581816102e40152610bb2015260c05185610ec8015260e0518561134301525184818161022b015281816108e80152818161095901526110f20152518361145c01525182610e9001525181818161080901528181610dd801526111a60152f35b90809250813d831161035b575b6103458183610494565b810103126103575751816101e7610289565b5f80fd5b503d61033b565b84513d5f823e3d90fd5b8681939792503d8311610398575b6103848183610494565b8101031261035757518694906101f56101ce565b503d61037a565b89513d5f823e3d90fd5b865162461bcd60e51b815260048082018790526024820152631b1a5c5560e21b6044820152606490fd5b506127108611156100c6565b865162461bcd60e51b8152600480820187905260248201526336363a3b60e11b6044820152606490fd5b5061271089106100b4565b845162461bcd60e51b815260048082018590526024820152637a65726f60e01b6044820152606490fd5b9050871615155f610098565b602081019081106001600160401b0382111761046557604052565b634e487b7160e01b5f52604160045260245ffd5b608081019081106001600160401b0382111761046557604052565b601f909101601f19168101906001600160401b0382119082101761046557604052565b51906001600160a01b038216820361035757565b51906001600160401b038216820361035757565b73ea30c4b8b44078bbf8a6ef5b9f1ec1626c7848d990813b15610357575f91604483926040519485938492631974142760e21b845260048401523060248401525af180156105415761052e5750565b6001600160401b03811161046557604052565b6040513d5f823e3d90fd5b60206105cd60405161055d8161044a565b5f81526040519361056d85610479565b60038552606036858701376105818561066c565b52600561058d8561068d565b525f6105988561069d565b526105df6040519485938493631888debd60e01b855260056004860152601a6024860152608060448601526084850190610639565b83810360031901606485015290610639565b03815f73ea30c4b8b44078bbf8a6ef5b9f1ec1626c7848d95af1908115610541575f9161060a575090565b90506020813d602011610631575b8161062560209383610494565b81010312610357575190565b3d9150610618565b9081518082526020808093019301915f5b828110610658575050505090565b83518552938101939281019260010161064a565b8051156106795760200190565b634e487b7160e01b5f52603260045260245ffd5b8051600110156106795760400190565b805160021015610679576060019056fe6080604081815260049182361015610015575f80fd5b5f3560e01c9081630391ce76146115655750806305694f99146114805780630c0e717b1461143d57806316c19739146113e05780631aad44c2146113c15780631d52137e1461139a5780631fb321411461137257806328e8fe7d1461132f5780632977a4ad146112ec5780632dd769df1461124157806333542e46146111805780634453878c1461114c57806353696eb8146110a5578063561d676d146110655780636862f9b714610f335780636e00569914610ef7578063750f0acc146103f35780637dc0d1d014610eb45780638eb80efe14610e7157806394877fc414610e4c578063975e900e14610e29578063a665823e14610da5578063a6afed9514610d8b578063a979f6b914610be1578063aabaecd614610b9e578063ac85499d1461090c578063b3604c96146108c9578063be01942c14610838578063c45a0155146107f5578063d26653ad14610713578063d6dd12f4146105e6578063e553be4e14610489578063e55c589414610452578063e73ce2ac14610416578063f06ac3c1146103f8578063f5a85596146103f35763fb395d10146101b6575f80fd5b346103ef576101c436611609565b90926001600160401b03809416936101dd851515611895565b335f52602094600c86526001600160801b03918183875f205416106103b3579181610267826127106102518a9997836102278e9b998261033b9f600c8f335f52525f205416611a74565b16907f00000000000000000000000000000000000000000000000000000000000000001690611a61565b0416335f52600b875283885f2054161115611c0b565b61026f611aea565b61027833611c44565b335f52600d85526102ba600161029a610295895f20973690611975565b611e5c565b95016102b26102aa878354611fdc565b808355611c94565b339054611e0b565b335f52600c8552855f20916102d3835492828416611a74565b16906001600160801b0319161790557f00000000000000000000000000000000000000000000000000000000000000009061030e8284611f8b565b845163fe3f670d60e01b81523391810191825260208201939093529194859283915f918391604090910190565b03926001600160a01b03165af19081156103aa575061037c575b337fe5d1c8c974618db76114a0279933f5451b9a9e715f98bdd9c5a543e81a9268aa5f80a2005b8161039b92903d106103a3575b6103938183611946565b810190611a8d565b505f80610355565b503d610389565b513d5f823e3d90fd5b855162461bcd60e51b81528085018890526016602482015275125b9cdd59999a58da595b9d10dbdb1b185d195c985b60521b6044820152606490fd5b5f80fd5b611649565b50346103ef575f3660031901126103ef576020906007549051908152f35b50346103ef5760203660031901126103ef576020906001600160a01b0361043b6115a3565b165f526006825260ff815f20541690519015158152f35b50346103ef5760203660031901126103ef576020906001600160a01b036104776115a3565b165f5260098252805f20549051908152f35b50346103ef5761051061049b366115cf565b9491929092335f52600e6020526104b760ff865f20541661182d565b6104bf611aea565b6104c881611c44565b6104d186611c94565b60018060a01b03811695865f52600d60205261050a6102aa610503885f20936104fb8554826120c8565b85549061216b565b8354611fdc565b54611e0b565b80546001600160401b038160801c931692808410155f146105c35750506001600160801b0381541690555b5f838152600b602052829020805490916001600160801b03908183168082106105a2575050505050815f52600b6020525f206001600160801b031981541690555b7f05d1afa4e43dbce3b369dc63aa54be0236311f52799da52a837aeb34453824eb5f80a2005b6105af9293949550611a74565b16906001600160801b03191617905561057c565b6001600160801b03906105d885831992611a74565b60801b16911617905561053b565b5090346103ef576102959061063b61061b61060036611609565b61060b959195611aea565b61061433611c44565b3690611975565b335f52600d6020526102b26102aa610503875f20936104fb8554826120c8565b80546001600160401b038160801c931692808410155f146106f05750506001600160801b0381541690555b335f908152600b602052829020805490916001600160801b03908183168082106106cf575050505050335f52600b6020525f206001600160801b031981541690555b337f05d1afa4e43dbce3b369dc63aa54be0236311f52799da52a837aeb34453824eb5f80a2005b6106dc9293949550611a74565b16906001600160801b0319161790556106a8565b6001600160801b039061070585831992611a74565b60801b169116179055610666565b50346103ef576001600160401b0361029561076961073d61073336611609565b9390933690611975565b6107473382611e0b565b61074f611aea565b6107583361207f565b335f526009602052845f2054611cfc565b61077281611c94565b61077c3382611e0b565b335f526009602052835f20551690600a6020525f208054906001600160801b0390816107aa85828616611866565b166001600160801b03198094161790556107c8845493828516611866565b169116179055337f6663c4b4f37934bad95a7e7828d7613470512e596e6278df939ba459ae7e0f635f80a2005b50346103ef575f3660031901126103ef57517f00000000000000000000000000000000000000000000000000000000000000006001600160a01b03168152602090f35b50346103ef5760203660031901126103ef576001600160401b0361085a6115b9565b610862611aea565b169061088a61087083612395565b6108793361207f565b335f526009602052825f2054611cfc565b61089381611c94565b61089d3382611e0b565b335f526009602052815f2055600a6020525f208054906001600160801b0390816107aa85828616611866565b50346103ef575f3660031901126103ef57602090516001600160401b037f0000000000000000000000000000000000000000000000000000000000000000168152f35b50346103ef5761091b36611609565b6001600160401b0392918316610932811515611895565b335f5261097f6109a0602095600c87526127106001600160801b0393849283895f205416907f00000000000000000000000000000000000000000000000000000000000000001690611a61565b0416335f52600b8752826109988582895f205416611866565b161115611c0b565b8554829082908082169060801c808210610b96576109bd91611a74565b1610610b5b576109cb611aea565b6109d433611c44565b335f52600d85526109fe6109ef610295865f20953690611975565b936102b26102aa868354611cfc565b335f5260068552835f20805460ff811615610aed575b505094849591610a8e959392335f52600b8552855f2080549082610a3a85828516611866565b166001600160801b0319809316179055610a598454938460801c611866565b60801b1691161781557f00000000000000000000000000000000000000000000000000000000000000009061030e8284611f8b565b03926001600160a01b03165af19081156103aa5750610acf575b337f7c2296a8bd586b4860d6bfdd0917f50dffd764d8bfdb183f865296fff404d7095f80a2005b81610ae592903d106103a3576103938183611946565b505f80610aa8565b60ff1916600117905560075468010000000000000000811015610b485791859691610b23846001610a8e99979601600755611a18565b81549060031b9033821b9160018060a01b03901b191617905591969581939450610a14565b604187634e487b7160e01b5f525260245ffd5b835162461bcd60e51b81528087018690526015602482015274496e73756666696369656e744c697175696469747960581b6044820152606490fd5b50505f6109bd565b50346103ef575f3660031901126103ef57517f00000000000000000000000000000000000000000000000000000000000000006001600160a01b03168152602090f35b5090346103ef5760603660031901126103ef57610bfc6115a3565b602435906001600160401b03908183168093036103ef576044359182168092036103ef576008546001600160a01b03919082163303610d7b571692835f52600d602052610c7c855f20610c6d610c5186612395565b610c75610c5d87612395565b91610c6d60018601918254611fdc565b809155611c94565b8254611fdc565b8054608081901c808410610d585750506001600160801b0381541690555b5f838152600c60205284902080546001600160801b0393849081831690818110610d3b575050505050825f52600c602052835f206001600160801b031981541690555b825f52600b602052835f2091825491818316808210155f14610d18575050505f9283525050600b6020522080546001600160801b0319169055005b9091939550610d28929450611a74565b6001600160801b03199092169116179055005b610d4491611a74565b16906001600160801b031916179055610cdd565b6001600160801b0390610d6d85831992611a74565b60801b169116179055610c9a565b85516303df658960e61b81528590fd5b346103ef575f3660031901126103ef57610da3611aea565b005b50346103ef57806003193601126103ef57610dbe6115a3565b91602435928315158094036103ef576001600160a01b03917f000000000000000000000000000000000000000000000000000000000000000083163303610e1b5750165f52600e6020525f209060ff801983541691161790555f80f35b8351631966391b60e11b8152fd5b50346103ef575f3660031901126103ef57602090610e45611aa5565b9051908152f35b50346103ef575f3660031901126103ef576001600160801b0360209254169051908152f35b50346103ef575f3660031901126103ef57602090516001600160401b037f0000000000000000000000000000000000000000000000000000000000000000168152f35b50346103ef575f3660031901126103ef57517f00000000000000000000000000000000000000000000000000000000000000006001600160a01b03168152602090f35b50346103ef5760203660031901126103ef576020906001600160a01b03610f1c6115a3565b165f52600e825260ff815f20541690519015158152f35b50346103ef57602090816003193601126103ef57610f4f6115a3565b6008546001600160a01b0391908216908115611036579060648596845f979416968793848252600d865287822096610f8c60018901928354611f8b565b610f9c8854826008541690611f8b565b600854169054965488519788968795638314c5f560e01b8752860152602485015260448401525af190811561102c575f91610fff575b50809151927f8c24510396cde239a83ac7e0def137bf4d466c30292967872a7e376c3343d52f5f80a38152f35b90508381813d8311611025575b6110168183611946565b810103126103ef57515f610fd2565b503d61100c565b82513d5f823e3d90fd5b835162461bcd60e51b815280870186905260096024820152686e6f20656e67696e6560b81b6044820152606490fd5b50346103ef5760203660031901126103ef576020906001600160a01b0361108a6115a3565b165f52600c82526001600160801b03815f2054169051908152f35b50346103ef5760203660031901126103ef576020906001600160a01b036110ca6115a3565b16805f52600c83526001600160801b03908161271061111882865f2054166001600160401b037f00000000000000000000000000000000000000000000000000000000000000001690611a61565b0416905f52600b845281835f205416818110155f1461113d5750505f915b5191168152f35b61114691611a74565b91611136565b50346103ef5760203660031901126103ef5761116a60209235611a18565b905491519160018060a01b039160031b1c168152f35b5090346103ef5760203660031901126103ef5761119b6115a3565b6001600160a01b03917f000000000000000000000000000000000000000000000000000000000000000083163303610e1b57600854938385166112185750501680916bffffffffffffffffffffffff60a01b16176008557f3f0723dec6e79bd3a158cf38167a46efcdf471cb3f8e945d6f51dc7c9d6a75655f80a2005b906020606492519162461bcd60e51b835282015260036024820152621cd95d60ea1b6044820152fd5b50346103ef576001600160401b039061129461127861029561126236611609565b951694611270861515611895565b61060b611aea565b335f52600d6020526102b26102aa6001855f2001928354611cfc565b335f52600c6020525f20908154906112b66001600160801b0391828416611866565b16906001600160801b031916179055337fb6196b6783bd399556c99870c04dd5637c27d43fa879217db7ece53dce7f45775f80a2005b50346103ef575f3660031901126103ef57517f00000000000000000000000000000000000000000000000000000000000000006001600160a01b03168152602090f35b50346103ef575f3660031901126103ef57517f00000000000000000000000000000000000000000000000000000000000000006001600160a01b03168152602090f35b50346103ef575f3660031901126103ef5760085490516001600160a01b039091168152602090f35b50346103ef575f3660031901126103ef576020906001600160801b03600554169051908152f35b50346103ef575f3660031901126103ef576020915460801c9051908152f35b50346103ef5760203660031901126103ef576080906001600160a01b036114056115a3565b165f52600d602052805f20906009602052805f2054918054916002600183015492015492815194855260208501528301526060820152f35b50346103ef575f3660031901126103ef57602090516001600160401b037f0000000000000000000000000000000000000000000000000000000000000000168152f35b5090346103ef576114f6916001600160401b0361149c366115cf565b959091335f52600e6020526114b660ff865f20541661182d565b6114be611aea565b6114c781611c44565b6114d087611c94565b60018060a01b03811696875f52600d60205261050a6102aa6001885f2001928354611cfc565b1690835f52600c6020525f208054906001600160801b03908161151b85828616611866565b166001600160801b0319809416179055611539845493828516611866565b1691161790557fb6196b6783bd399556c99870c04dd5637c27d43fa879217db7ece53dce7f45775f80a2005b9050346103ef5760203660031901126103ef576020916001600160801b03906001600160a01b036115946115a3565b165f52600b84525f2054168152f35b600435906001600160a01b03821682036103ef57565b600435906001600160401b03821682036103ef57565b60609060031901126103ef576004356001600160a01b03811681036103ef57906024356001600160401b03811681036103ef579060443590565b60031991906040838201126103ef576001600160401b039060043582811681036103ef57936024359283116103ef57826080920301126103ef5760040190565b346103ef576020806003193601126103ef576116636115b9565b9061166c611aea565b335f52600a81526001600160801b03916040906001600160401b0384835f20541691168091106117f4579161177b8194846116a75f96612395565b91338752600985526116bc8387892054611fdc565b6116c581611c94565b6116cf3382611e0b565b3388526009865286882055600a855285872090815491816116f285828616611a74565b166001600160801b03198094161790556004549281841690826117188660801c84611a74565b168111156117da575b50505050507f0000000000000000000000000000000000000000000000000000000000000000906117528282611f8b565b845163fe3f670d60e01b8152336004820152602481019190915294859283919082906044820190565b03926001600160a01b03165af19081156103aa57506117bc575b337f3f520b67a8bac399c7508fca97d35957a949b799c3717c415bb07a7b072a270c5f80a2005b816117d292903d106103a3576103938183611946565b505f80611795565b6117e391611a74565b169116176004555f80808080611721565b815162461bcd60e51b8152600481018490526012602482015271496e73756666696369656e74537570706c7960701b6044820152606490fd5b1561183457565b60405162461bcd60e51b815260206004820152600a6024820152693737ba103937baba32b960b11b6044820152606490fd5b9190916001600160801b038080941691160191821161188157565b634e487b7160e01b5f52601160045260245ffd5b1561189c57565b60405162461bcd60e51b815260206004820152600a60248201526916995c9bd05b5bdd5b9d60b21b6044820152606490fd5b608081019081106001600160401b038211176118e957604052565b634e487b7160e01b5f52604160045260245ffd5b6001600160401b0381116118e957604052565b606081019081106001600160401b038211176118e957604052565b602081019081106001600160401b038211176118e957604052565b90601f801991011681019081106001600160401b038211176118e957604052565b359060ff821682036103ef57565b91906080838203126103ef576040519261198e846118ce565b838135815260206119a0818401611967565b818301526119b060408401611967565b604083015260608301356001600160401b03938482116103ef57019084601f830112156103ef5781359384116118e957604051946119f7601f8601601f1916830187611946565b8486528185840101116103ef5783606094825f940183880137850101520152565b600754811015611a4d5760075f527fa66cc928b5edb82af9bd49922954155ab7b0942694bea4ce44661d9a8736c68801905f90565b634e487b7160e01b5f52603260045260245ffd5b8181029291811591840414171561188157565b6001600160801b03918216908216039190821161188157565b908160209103126103ef575180151581036103ef5790565b6004546001600160801b038116908115611ae45760801c906127109182810290808204841490151715611881570481811115611adf575090565b905090565b50505f90565b6005546001600160801b0380821691824203924284116118815742148015611bfe575b611be95750611b1a611aa5565b906105dc9180830292830403611881576127106101f492048201809211611881577f6c1b4226c1c075758d52f5c0f36de14ce8870265c7a31e93935594bad98acb96928160409364496cebb800611b8160045494611b7c8660801c9485611a61565b611a61565b049081611bb5575b505050504216806001600160801b0319600554161760055560045460801c9082519182526020820152a1565b8280611bdb931691611bd0836001600160801b031992611866565b60801b169416611866565b16176004555f818180611b89565b91504216906001600160801b03191617600555565b5060045460801c15611b0d565b15611c1257565b60405162461bcd60e51b815260206004820152600a60248201526909898a8ac84e4cac2c6d60b31b6044820152606490fd5b60018060a01b0381165f52600d60205260405f2090815415611c64575050565b611c9291611c755f54808355611c94565b611c80828254611e0b565b61050a60015f54920191808355611c94565b565b73ea30c4b8b44078bbf8a6ef5b9f1ec1626c7848d9803b156103ef57604051631974142760e21b815260048101929092523060248301525f908290818381604481015b03925af18015611cf157611ce85750565b611c92906118fd565b6040513d5f823e3d90fd5b908115611dfb575b8015611ded575b60405191611d1883611910565b600283526040366020850137611d2d83612378565b52611d3782612385565b526020611d8160405192611d4a8461192b565b5f8452611d936040519485938493631888debd60e01b8552600560048601526008602486015260806044860152608485019061230f565b8381036003190160648501529061230f565b03815f73ea30c4b8b44078bbf8a6ef5b9f1ec1626c7848d95af1908115611cf1575f91611dbe575090565b90506020813d602011611de5575b81611dd960209383611946565b810103126103ef575190565b3d9150611dcc565b50611df6612406565b611d0b565b9050611e05612406565b90611d04565b73ea30c4b8b44078bbf8a6ef5b9f1ec1626c7848d991823b156103ef57604051631974142760e21b815260048101929092526001600160a01b03166024820152905f90829081838160448101611cd7565b60409060ff828201511660058103611f6d5750606060ff91835190611e80826118ce565b5f825282602093835f86809601525f88820152015260e48151836060878286015116940151885192611eb1846118ce565b83528183019485528789840160058152606085019283528a51998a9788966313fce3b160e11b88528d6004890152516044880152511660648601525116608484015251608060a484015280519182918260c4860152018484015e5f838284010152336024830152601f801991011681010301815f73ea30c4b8b44078bbf8a6ef5b9f1ec1626c7848d95af19283156103aa57505f92611f4f57505090565b90809250813d8311611f66575b611dd98183611946565b503d611f5c565b6044908351906367cf307160e01b8252600482015260056024820152fd5b73ea30c4b8b44078bbf8a6ef5b9f1ec1626c7848d991823b156103ef576040516346ce4e4960e11b815260048101929092526001600160a01b03166024820152905f90829081838160448101611cd7565b90811561206f575b8015612061575b60405191611ff883611910565b60028352604036602085013761200d83612378565b5261201782612385565b526020611d816040519261202a8461192b565b5f8452611d936040519485938493631888debd60e01b8552600560048601526007602486015260806044860152608485019061230f565b5061206a612406565b611feb565b9050612079612406565b90611fe4565b6001600160a01b0381165f818152600960205260409020805490929190156120a657505050565b6120b7611c92935f54809155611c94565b5f52600960205260405f2054611e0b565b90811561215b575b801561214d575b604051916120e483611910565b6002835260403660208501376120f983612378565b5261210382612385565b526020611d81604051926121168461192b565b5f8452611d936040519485938493631888debd60e01b8552600560048601526012602486015260806044860152608485019061230f565b50612156612406565b6120d7565b9050612165612406565b906120d0565b91908215612225575b8015612217575b8115612207575b6040519261218f846118ce565b6003845260603660208601376121a484612378565b526121ae83612385565b52815160021015611a4d5760608201526020611d81604051926121d08461192b565b5f8452611d936040519485938493631888debd60e01b8552600560048601526004602486015260806044860152608485019061230f565b9050612211612406565b90612182565b50612220612406565b61217b565b91506040516122338161192b565b5f815260405190612243826118ce565b6003825260603660208401375f61225983612378565b525f61226483612385565b52815160021015611a4d57611d816020915f60608501526122ae6040519485938493631888debd60e01b85525f6004860152601a602486015260806044860152608485019061230f565b03815f73ea30c4b8b44078bbf8a6ef5b9f1ec1626c7848d95af1908115611cf1575f916122dd575b5091612174565b90506020813d602011612307575b816122f860209383611946565b810103126103ef57515f6122d6565b3d91506122eb565b9081518082526020808093019301915f5b82811061232e575050505090565b835185529381019392810192600101612320565b90916123676123759360058452601a602085015260806040850152608084019061230f565b91606081840391015261230f565b90565b805115611a4d5760200190565b805160011015611a4d5760400190565b6040516123a18161192b565b5f8152604051916123b1836118ce565b6003835260603660208501376123c683612378565b5260056123d283612385565b52815160021015611a4d575f6060830152604051631888debd60e01b81529160209183918291611d93919060048401612342565b6040516124128161192b565b5f815260405190612422826118ce565b6003825260603660208401375f6123c68361237856fea26469706673582212202a1558383bdbb2bf6ec47d7c6152d11f5e9e94a91fde1aed0a89373a30c67f1164736f6c63430008190033",
  "linkReferences": {},
  "deployedLinkReferences": {}
}