{
  "_format": "hh-sol-artifact-1",
  "contractName": "ObscuraCreditMarket",
  "sourceName": "contracts/credit/ObscuraCreditMarket.sol",
  "abi": [
    {
      "inputs": [
        {
          "internalType": "address",
          "name": "_loanAsset",
          "type": "address"
        },
        {
          "internalType": "address",
          "name": "_collateralAsset",
          "type": "address"
        },
        {
          "internalType": "address",
          "name": "_oracle",
          "type": "address"
        },
        {
          "internalType": "address",
          "name": "_irm",
          "type": "address"
        },
        {
          "internalType": "uint64",
          "name": "_lltvBps",
          "type": "uint64"
        },
        {
          "internalType": "uint64",
          "name": "_liqBonusBps",
          "type": "uint64"
        },
        {
          "internalType": "uint64",
          "name": "_liqThresholdBps",
          "type": "uint64"
        }
      ],
      "stateMutability": "nonpayable",
      "type": "constructor"
    },
    {
      "inputs": [
        {
          "internalType": "uint8",
          "name": "got",
          "type": "uint8"
        },
        {
          "internalType": "uint8",
          "name": "expected",
          "type": "uint8"
        }
      ],
      "name": "InvalidEncryptedInput",
      "type": "error"
    },
    {
      "inputs": [],
      "name": "NotAuctionEngine",
      "type": "error"
    },
    {
      "inputs": [],
      "name": "NotFactory",
      "type": "error"
    },
    {
      "inputs": [
        {
          "internalType": "int32",
          "name": "value",
          "type": "int32"
        }
      ],
      "name": "SecurityZoneOutOfBounds",
      "type": "error"
    },
    {
      "inputs": [],
      "name": "WrongCaller",
      "type": "error"
    },
    {
      "anonymous": false,
      "inputs": [
        {
          "indexed": false,
          "internalType": "uint128",
          "name": "newTotalBorrowAssets",
          "type": "uint128"
        },
        {
          "indexed": false,
          "internalType": "uint128",
          "name": "ts",
          "type": "uint128"
        }
      ],
      "name": "Accrued",
      "type": "event"
    },
    {
      "anonymous": false,
      "inputs": [
        {
          "indexed": true,
          "internalType": "address",
          "name": "engine",
          "type": "address"
        }
      ],
      "name": "AuctionEngineSet",
      "type": "event"
    },
    {
      "anonymous": false,
      "inputs": [
        {
          "indexed": true,
          "internalType": "address",
          "name": "user",
          "type": "address"
        }
      ],
      "name": "Borrowed",
      "type": "event"
    },
    {
      "anonymous": false,
      "inputs": [
        {
          "indexed": true,
          "internalType": "address",
          "name": "user",
          "type": "address"
        }
      ],
      "name": "CollateralSupplied",
      "type": "event"
    },
    {
      "anonymous": false,
      "inputs": [
        {
          "indexed": true,
          "internalType": "address",
          "name": "user",
          "type": "address"
        }
      ],
      "name": "CollateralWithdrawn",
      "type": "event"
    },
    {
      "anonymous": false,
      "inputs": [
        {
          "indexed": true,
          "internalType": "address",
          "name": "borrower",
          "type": "address"
        },
        {
          "indexed": true,
          "internalType": "uint256",
          "name": "auctionId",
          "type": "uint256"
        }
      ],
      "name": "LiquidationOpened",
      "type": "event"
    },
    {
      "anonymous": false,
      "inputs": [
        {
          "indexed": true,
          "internalType": "address",
          "name": "user",
          "type": "address"
        }
      ],
      "name": "Repaid",
      "type": "event"
    },
    {
      "anonymous": false,
      "inputs": [
        {
          "indexed": true,
          "internalType": "address",
          "name": "user",
          "type": "address"
        }
      ],
      "name": "Supplied",
      "type": "event"
    },
    {
      "anonymous": false,
      "inputs": [
        {
          "indexed": true,
          "internalType": "address",
          "name": "user",
          "type": "address"
        }
      ],
      "name": "Withdrew",
      "type": "event"
    },
    {
      "inputs": [],
      "name": "accrueInterest",
      "outputs": [],
      "stateMutability": "nonpayable",
      "type": "function"
    },
    {
      "inputs": [
        {
          "internalType": "address",
          "name": "borrower",
          "type": "address"
        },
        {
          "internalType": "uint64",
          "name": "seizedColl",
          "type": "uint64"
        },
        {
          "internalType": "uint64",
          "name": "repaidDebt",
          "type": "uint64"
        }
      ],
      "name": "applyLiquidation",
      "outputs": [],
      "stateMutability": "nonpayable",
      "type": "function"
    },
    {
      "inputs": [],
      "name": "auctionEngine",
      "outputs": [
        {
          "internalType": "address",
          "name": "",
          "type": "address"
        }
      ],
      "stateMutability": "view",
      "type": "function"
    },
    {
      "inputs": [
        {
          "internalType": "uint64",
          "name": "amtPlain",
          "type": "uint64"
        },
        {
          "components": [
            {
              "internalType": "uint256",
              "name": "ctHash",
              "type": "uint256"
            },
            {
              "internalType": "uint8",
              "name": "securityZone",
              "type": "uint8"
            },
            {
              "internalType": "uint8",
              "name": "utype",
              "type": "uint8"
            },
            {
              "internalType": "bytes",
              "name": "signature",
              "type": "bytes"
            }
          ],
          "internalType": "struct InEuint64",
          "name": "encAmt",
          "type": "tuple"
        },
        {
          "components": [
            {
              "internalType": "uint256",
              "name": "ctHash",
              "type": "uint256"
            },
            {
              "internalType": "uint8",
              "name": "securityZone",
              "type": "uint8"
            },
            {
              "internalType": "uint8",
              "name": "utype",
              "type": "uint8"
            },
            {
              "internalType": "bytes",
              "name": "signature",
              "type": "bytes"
            }
          ],
          "internalType": "struct InEaddress",
          "name": "encDest",
          "type": "tuple"
        }
      ],
      "name": "borrow",
      "outputs": [],
      "stateMutability": "nonpayable",
      "type": "function"
    },
    {
      "inputs": [
        {
          "internalType": "uint256",
          "name": "i",
          "type": "uint256"
        }
      ],
      "name": "borrowerAt",
      "outputs": [
        {
          "internalType": "address",
          "name": "",
          "type": "address"
        }
      ],
      "stateMutability": "view",
      "type": "function"
    },
    {
      "inputs": [],
      "name": "borrowersLength",
      "outputs": [
        {
          "internalType": "uint256",
          "name": "",
          "type": "uint256"
        }
      ],
      "stateMutability": "view",
      "type": "function"
    },
    {
      "inputs": [],
      "name": "collateralAsset",
      "outputs": [
        {
          "internalType": "address",
          "name": "",
          "type": "address"
        }
      ],
      "stateMutability": "view",
      "type": "function"
    },
    {
      "inputs": [],
      "name": "factory",
      "outputs": [
        {
          "internalType": "address",
          "name": "",
          "type": "address"
        }
      ],
      "stateMutability": "view",
      "type": "function"
    },
    {
      "inputs": [
        {
          "internalType": "address",
          "name": "u",
          "type": "address"
        }
      ],
      "name": "getEncryptedSupplyShares",
      "outputs": [
        {
          "internalType": "euint64",
          "name": "",
          "type": "bytes32"
        }
      ],
      "stateMutability": "view",
      "type": "function"
    },
    {
      "inputs": [
        {
          "internalType": "address",
          "name": "user",
          "type": "address"
        }
      ],
      "name": "getPlainBorrow",
      "outputs": [
        {
          "internalType": "uint128",
          "name": "",
          "type": "uint128"
        }
      ],
      "stateMutability": "view",
      "type": "function"
    },
    {
      "inputs": [
        {
          "internalType": "address",
          "name": "user",
          "type": "address"
        }
      ],
      "name": "getPlainCollateral",
      "outputs": [
        {
          "internalType": "uint128",
          "name": "",
          "type": "uint128"
        }
      ],
      "stateMutability": "view",
      "type": "function"
    },
    {
      "inputs": [
        {
          "internalType": "address",
          "name": "user",
          "type": "address"
        }
      ],
      "name": "getPosition",
      "outputs": [
        {
          "internalType": "euint64",
          "name": "encSupplyShares",
          "type": "bytes32"
        },
        {
          "internalType": "euint64",
          "name": "borrowShares",
          "type": "bytes32"
        },
        {
          "internalType": "euint64",
          "name": "collateral",
          "type": "bytes32"
        },
        {
          "internalType": "eaddress",
          "name": "disburseTo",
          "type": "bytes32"
        }
      ],
      "stateMutability": "view",
      "type": "function"
    },
    {
      "inputs": [
        {
          "internalType": "address",
          "name": "",
          "type": "address"
        }
      ],
      "name": "hasBorrow",
      "outputs": [
        {
          "internalType": "bool",
          "name": "",
          "type": "bool"
        }
      ],
      "stateMutability": "view",
      "type": "function"
    },
    {
      "inputs": [],
      "name": "irm",
      "outputs": [
        {
          "internalType": "address",
          "name": "",
          "type": "address"
        }
      ],
      "stateMutability": "view",
      "type": "function"
    },
    {
      "inputs": [
        {
          "internalType": "address",
          "name": "",
          "type": "address"
        }
      ],
      "name": "isRepayRouter",
      "outputs": [
        {
          "internalType": "bool",
          "name": "",
          "type": "bool"
        }
      ],
      "stateMutability": "view",
      "type": "function"
    },
    {
      "inputs": [],
      "name": "lastAccrualTs",
      "outputs": [
        {
          "internalType": "uint128",
          "name": "",
          "type": "uint128"
        }
      ],
      "stateMutability": "view",
      "type": "function"
    },
    {
      "inputs": [],
      "name": "liqBonusBps",
      "outputs": [
        {
          "internalType": "uint64",
          "name": "",
          "type": "uint64"
        }
      ],
      "stateMutability": "view",
      "type": "function"
    },
    {
      "inputs": [],
      "name": "liqThresholdBps",
      "outputs": [
        {
          "internalType": "uint64",
          "name": "",
          "type": "uint64"
        }
      ],
      "stateMutability": "view",
      "type": "function"
    },
    {
      "inputs": [
        {
          "internalType": "address",
          "name": "borrower",
          "type": "address"
        }
      ],
      "name": "liquidationOpen",
      "outputs": [
        {
          "internalType": "uint256",
          "name": "auctionId",
          "type": "uint256"
        }
      ],
      "stateMutability": "nonpayable",
      "type": "function"
    },
    {
      "inputs": [],
      "name": "lltvBps",
      "outputs": [
        {
          "internalType": "uint64",
          "name": "",
          "type": "uint64"
        }
      ],
      "stateMutability": "view",
      "type": "function"
    },
    {
      "inputs": [],
      "name": "loanAsset",
      "outputs": [
        {
          "internalType": "address",
          "name": "",
          "type": "address"
        }
      ],
      "stateMutability": "view",
      "type": "function"
    },
    {
      "inputs": [
        {
          "internalType": "address",
          "name": "user",
          "type": "address"
        }
      ],
      "name": "maxBorrowable",
      "outputs": [
        {
          "internalType": "uint128",
          "name": "",
          "type": "uint128"
        }
      ],
      "stateMutability": "view",
      "type": "function"
    },
    {
      "inputs": [
        {
          "internalType": "uint64",
          "name": "amtPlain",
          "type": "uint64"
        }
      ],
      "name": "notifySupply",
      "outputs": [],
      "stateMutability": "nonpayable",
      "type": "function"
    },
    {
      "inputs": [],
      "name": "oracle",
      "outputs": [
        {
          "internalType": "address",
          "name": "",
          "type": "address"
        }
      ],
      "stateMutability": "view",
      "type": "function"
    },
    {
      "inputs": [
        {
          "internalType": "uint64",
          "name": "amtPlain",
          "type": "uint64"
        },
        {
          "components": [
            {
              "internalType": "uint256",
              "name": "ctHash",
              "type": "uint256"
            },
            {
              "internalType": "uint8",
              "name": "securityZone",
              "type": "uint8"
            },
            {
              "internalType": "uint8",
              "name": "utype",
              "type": "uint8"
            },
            {
              "internalType": "bytes",
              "name": "signature",
              "type": "bytes"
            }
          ],
          "internalType": "struct InEuint64",
          "name": "encAmt",
          "type": "tuple"
        }
      ],
      "name": "repay",
      "outputs": [],
      "stateMutability": "nonpayable",
      "type": "function"
    },
    {
      "inputs": [
        {
          "internalType": "address",
          "name": "borrower",
          "type": "address"
        },
        {
          "internalType": "uint64",
          "name": "amtPlain",
          "type": "uint64"
        },
        {
          "internalType": "euint64",
          "name": "handle",
          "type": "bytes32"
        }
      ],
      "name": "repayFromHook",
      "outputs": [],
      "stateMutability": "nonpayable",
      "type": "function"
    },
    {
      "inputs": [
        {
          "internalType": "address",
          "name": "_engine",
          "type": "address"
        }
      ],
      "name": "setAuctionEngine",
      "outputs": [],
      "stateMutability": "nonpayable",
      "type": "function"
    },
    {
      "inputs": [
        {
          "internalType": "address",
          "name": "router",
          "type": "address"
        },
        {
          "internalType": "bool",
          "name": "ok",
          "type": "bool"
        }
      ],
      "name": "setRepayRouter",
      "outputs": [],
      "stateMutability": "nonpayable",
      "type": "function"
    },
    {
      "inputs": [
        {
          "internalType": "uint64",
          "name": "amtPlain",
          "type": "uint64"
        },
        {
          "components": [
            {
              "internalType": "uint256",
              "name": "ctHash",
              "type": "uint256"
            },
            {
              "internalType": "uint8",
              "name": "securityZone",
              "type": "uint8"
            },
            {
              "internalType": "uint8",
              "name": "utype",
              "type": "uint8"
            },
            {
              "internalType": "bytes",
              "name": "signature",
              "type": "bytes"
            }
          ],
          "internalType": "struct InEuint64",
          "name": "encAmt",
          "type": "tuple"
        }
      ],
      "name": "supply",
      "outputs": [],
      "stateMutability": "nonpayable",
      "type": "function"
    },
    {
      "inputs": [
        {
          "internalType": "uint64",
          "name": "amtPlain",
          "type": "uint64"
        },
        {
          "components": [
            {
              "internalType": "uint256",
              "name": "ctHash",
              "type": "uint256"
            },
            {
              "internalType": "uint8",
              "name": "securityZone",
              "type": "uint8"
            },
            {
              "internalType": "uint8",
              "name": "utype",
              "type": "uint8"
            },
            {
              "internalType": "bytes",
              "name": "signature",
              "type": "bytes"
            }
          ],
          "internalType": "struct InEuint64",
          "name": "encAmt",
          "type": "tuple"
        }
      ],
      "name": "supplyCollateral",
      "outputs": [],
      "stateMutability": "nonpayable",
      "type": "function"
    },
    {
      "inputs": [
        {
          "internalType": "address",
          "name": "borrower",
          "type": "address"
        },
        {
          "internalType": "uint64",
          "name": "amtPlain",
          "type": "uint64"
        },
        {
          "internalType": "euint64",
          "name": "handle",
          "type": "bytes32"
        }
      ],
      "name": "supplyCollateralFromHook",
      "outputs": [],
      "stateMutability": "nonpayable",
      "type": "function"
    },
    {
      "inputs": [],
      "name": "totalBorrowAssets",
      "outputs": [
        {
          "internalType": "uint128",
          "name": "",
          "type": "uint128"
        }
      ],
      "stateMutability": "view",
      "type": "function"
    },
    {
      "inputs": [],
      "name": "totalSupplyAssets",
      "outputs": [
        {
          "internalType": "uint128",
          "name": "",
          "type": "uint128"
        }
      ],
      "stateMutability": "view",
      "type": "function"
    },
    {
      "inputs": [],
      "name": "utilizationBps",
      "outputs": [
        {
          "internalType": "uint256",
          "name": "",
          "type": "uint256"
        }
      ],
      "stateMutability": "view",
      "type": "function"
    },
    {
      "inputs": [
        {
          "internalType": "uint64",
          "name": "amtPlain",
          "type": "uint64"
        }
      ],
      "name": "withdraw",
      "outputs": [],
      "stateMutability": "nonpayable",
      "type": "function"
    },
    {
      "inputs": [
        {
          "internalType": "uint64",
          "name": "amtPlain",
          "type": "uint64"
        },
        {
          "components": [
            {
              "internalType": "uint256",
              "name": "ctHash",
              "type": "uint256"
            },
            {
              "internalType": "uint8",
              "name": "securityZone",
              "type": "uint8"
            },
            {
              "internalType": "uint8",
              "name": "utype",
              "type": "uint8"
            },
            {
              "internalType": "bytes",
              "name": "signature",
              "type": "bytes"
            }
          ],
          "internalType": "struct InEuint64",
          "name": "encAmt",
          "type": "tuple"
        }
      ],
      "name": "withdrawCollateral",
      "outputs": [],
      "stateMutability": "nonpayable",
      "type": "function"
    },
    {
      "inputs": [
        {
          "internalType": "uint64",
          "name": "amtPlain",
          "type": "uint64"
        }
      ],
      "name": "withdrawToVault",
      "outputs": [],
      "stateMutability": "nonpayable",
      "type": "function"
    }
  ],
  "bytecode": "0x610180604090808252346103575760e081612c1480380380916100228285610494565b83398101031261035757610035816104b7565b916020926100448484016104b7565b916100508185016104b7565b9161005d606086016104b7565b9561006a608087016104cb565b9661008360c061007c60a08a016104cb565b98016104cb565b946001600160a01b038481161515908161043e575b5015610414576001600160401b03898116979088151580610409575b156103df5787169488861015806103d3575b156103a95760805260a05260c05260e05261010096875261012095865261014093845233610160908152600580546001600160801b031916426001600160801b0316178155845191966101188361044a565b5f835285519161012783610479565b60038352606036868501375f61013c8461066c565b52806101478461068d565b525f6101528461069d565b528651918261019a610187631888debd60e01b97888452856004850152601a6024850152608060448501526084840190610639565b6003199687848303016064850152610639565b0392868173ea30c4b8b44078bbf8a6ef5b9f1ec1626c7848d995815f885af190811561039f57908795949392915f9161036c575b50956101f56101ec5f936101e78a6102689b87556104df565b61054c565b806001556104df565b6102778a51956102048761044a565b8387528b5161021281610479565b600381526060368a8301376127106102298261066c565b52856102348261068d565b528461023f8261069d565b528c51998a988997889687526004870152601a6024870152608060448701526084860190610639565b91848303016064850152610639565b03925af1918215610362575f9261032e575b50506102a8916101e78261029f936002556104df565b806003556104df565b519261256694856106ae8639608051858181610a04015281816113d401526117fc015260a0518581816102e40152610c86015260c05185610f9c015260e0518561141701525184818161022b0152818161087e01528181610c4e01526111c60152518361153001525182610f64015251818181610b6f01528181610eac015261127a0152f35b90809250813d831161035b575b6103458183610494565b810103126103575751816101e7610289565b5f80fd5b503d61033b565b84513d5f823e3d90fd5b8681939792503d8311610398575b6103848183610494565b8101031261035757518694906101f56101ce565b503d61037a565b89513d5f823e3d90fd5b865162461bcd60e51b815260048082018790526024820152631b1a5c5560e21b6044820152606490fd5b506127108611156100c6565b865162461bcd60e51b8152600480820187905260248201526336363a3b60e11b6044820152606490fd5b5061271089106100b4565b845162461bcd60e51b815260048082018590526024820152637a65726f60e01b6044820152606490fd5b9050871615155f610098565b602081019081106001600160401b0382111761046557604052565b634e487b7160e01b5f52604160045260245ffd5b608081019081106001600160401b0382111761046557604052565b601f909101601f19168101906001600160401b0382119082101761046557604052565b51906001600160a01b038216820361035757565b51906001600160401b038216820361035757565b73ea30c4b8b44078bbf8a6ef5b9f1ec1626c7848d990813b15610357575f91604483926040519485938492631974142760e21b845260048401523060248401525af180156105415761052e5750565b6001600160401b03811161046557604052565b6040513d5f823e3d90fd5b60206105cd60405161055d8161044a565b5f81526040519361056d85610479565b60038552606036858701376105818561066c565b52600561058d8561068d565b525f6105988561069d565b526105df6040519485938493631888debd60e01b855260056004860152601a6024860152608060448601526084850190610639565b83810360031901606485015290610639565b03815f73ea30c4b8b44078bbf8a6ef5b9f1ec1626c7848d95af1908115610541575f9161060a575090565b90506020813d602011610631575b8161062560209383610494565b81010312610357575190565b3d9150610618565b9081518082526020808093019301915f5b828110610658575050505090565b83518552938101939281019260010161064a565b8051156106795760200190565b634e487b7160e01b5f52603260045260245ffd5b8051600110156106795760400190565b805160021015610679576060019056fe6080604081815260049182361015610015575f80fd5b5f3560e01c9081630391ce76146116395750806305694f99146115545780630c0e717b1461151157806316c19739146114b45780631aad44c2146114955780631d52137e1461146e5780631fb321411461144657806328e8fe7d146114035780632977a4ad146113c05780632dd769df1461131557806333542e46146112545780634453878c1461122057806353696eb814611179578063561d676d146111395780636862f9b7146110075780636e00569914610fcb578063750f0acc146103f35780637dc0d1d014610f885780638eb80efe14610f4557806394877fc414610f20578063975e900e14610efd578063a665823e14610e79578063a6afed9514610e5f578063a979f6b914610cb5578063aabaecd614610c72578063b3604c9614610c2f578063be01942c14610b9e578063c45a015514610b5b578063c979132d146107f5578063d26653ad14610713578063d6dd12f4146105e6578063e553be4e14610489578063e55c589414610452578063e73ce2ac14610416578063f06ac3c1146103f8578063f5a85596146103f35763fb395d10146101b6575f80fd5b346103ef576101c4366116dd565b90926001600160401b03809416936101dd851515611969565b335f52602094600c86526001600160801b03918183875f205416106103b3579181610267826127106102518a9997836102278e9b998261033b9f600c8f335f52525f205416611b48565b16907f00000000000000000000000000000000000000000000000000000000000000001690611b35565b0416335f52600b875283885f2054161115611cdf565b61026f611bbe565b61027833611d18565b335f52600d85526102ba600161029a610295895f20973690611a49565b611f30565b95016102b26102aa878354611ff7565b808355611d68565b339054611edf565b335f52600c8552855f20916102d3835492828416611b48565b16906001600160801b0319161790557f00000000000000000000000000000000000000000000000000000000000000009061030e8284611fa6565b845163fe3f670d60e01b81523391810191825260208201939093529194859283915f918391604090910190565b03926001600160a01b03165af19081156103aa575061037c575b337fe5d1c8c974618db76114a0279933f5451b9a9e715f98bdd9c5a543e81a9268aa5f80a2005b8161039b92903d106103a3575b6103938183611a1a565b810190611b61565b505f80610355565b503d610389565b513d5f823e3d90fd5b855162461bcd60e51b81528085018890526016602482015275125b9cdd59999a58da595b9d10dbdb1b185d195c985b60521b6044820152606490fd5b5f80fd5b61171d565b50346103ef575f3660031901126103ef576020906007549051908152f35b50346103ef5760203660031901126103ef576020906001600160a01b0361043b611677565b165f526006825260ff815f20541690519015158152f35b50346103ef5760203660031901126103ef576020906001600160a01b03610477611677565b165f5260098252805f20549051908152f35b50346103ef5761051061049b366116a3565b9491929092335f52600e6020526104b760ff865f205416611901565b6104bf611bbe565b6104c881611d18565b6104d186611d68565b60018060a01b03811695865f52600d60205261050a6102aa610503885f20936104fb8554826120e3565b855490612186565b8354611ff7565b54611edf565b80546001600160401b038160801c931692808410155f146105c35750506001600160801b0381541690555b5f838152600b602052829020805490916001600160801b03908183168082106105a2575050505050815f52600b6020525f206001600160801b031981541690555b7f05d1afa4e43dbce3b369dc63aa54be0236311f52799da52a837aeb34453824eb5f80a2005b6105af9293949550611b48565b16906001600160801b03191617905561057c565b6001600160801b03906105d885831992611b48565b60801b16911617905561053b565b5090346103ef576102959061063b61061b610600366116dd565b61060b959195611bbe565b61061433611d18565b3690611a49565b335f52600d6020526102b26102aa610503875f20936104fb8554826120e3565b80546001600160401b038160801c931692808410155f146106f05750506001600160801b0381541690555b335f908152600b602052829020805490916001600160801b03908183168082106106cf575050505050335f52600b6020525f206001600160801b031981541690555b337f05d1afa4e43dbce3b369dc63aa54be0236311f52799da52a837aeb34453824eb5f80a2005b6106dc9293949550611b48565b16906001600160801b0319161790556106a8565b6001600160801b039061070585831992611b48565b60801b169116179055610666565b50346103ef576001600160401b0361029561076961073d610733366116dd565b9390933690611a49565b6107473382611edf565b61074f611bbe565b6107583361209a565b335f526009602052845f2054611dd0565b61077281611d68565b61077c3382611edf565b335f526009602052835f20551690600a6020525f208054906001600160801b0390816107aa8582861661193a565b166001600160801b03198094161790556107c884549382851661193a565b169116179055337f6663c4b4f37934bad95a7e7828d7613470512e596e6278df939ba459ae7e0f635f80a2005b50346103ef57600319906060368301126103ef5761081161168d565b916024356001600160401b03938482116103ef5760808383360301126103ef57604435928584116103ef5760809084360301126103ef57846108a491169161085a831515611969565b335f526108c5602096600c88526127106001600160801b03948592838a5f205416907f00000000000000000000000000000000000000000000000000000000000000001690611b35565b0416335f52600b8852836108bd86828a5f20541661193a565b161115611cdf565b8654839083908082169060801c808210610b53576108e291611b48565b1610610b18576108f0611bbe565b6108f933611d18565b335f52600d8652610920610916610295875f209336908b01611a49565b9436908901611a49565b60ff868201511660078103610afb57509061099461097661099e93610943612390565b50805190606060ff8c83015116910151908a5192610960846119a2565b83528b83015260078a83015260608201526123b4565b916102b2610985888354611dd0565b80835560028301948555611d68565b6102b28154611d68565b335f5260068552835f20805460ff811615610a8d575b505094849591610a2e959392335f52600b8552855f20805490826109da8582851661193a565b166001600160801b03198093161790556109f98454938460801c61193a565b60801b1691161781557f00000000000000000000000000000000000000000000000000000000000000009061030e8284611fa6565b03926001600160a01b03165af19081156103aa5750610a6f575b337f7c2296a8bd586b4860d6bfdd0917f50dffd764d8bfdb183f865296fff404d7095f80a2005b81610a8592903d106103a3576103938183611a1a565b505f80610a48565b60ff1916600117905560075468010000000000000000811015610ae85791859691610ac3846001610a2e99979601600755611aec565b81549060031b9033821b9160018060a01b03901b1916179055919695819394506109b4565b604187634e487b7160e01b5f525260245ffd5b886044918851916367cf307160e01b835282015260076024820152fd5b845162461bcd60e51b81528088018790526015602482015274496e73756666696369656e744c697175696469747960581b6044820152606490fd5b50505f6108e2565b50346103ef575f3660031901126103ef57517f00000000000000000000000000000000000000000000000000000000000000006001600160a01b03168152602090f35b50346103ef5760203660031901126103ef576001600160401b03610bc061168d565b610bc8611bbe565b1690610bf0610bd68361248d565b610bdf3361209a565b335f526009602052825f2054611dd0565b610bf981611d68565b610c033382611edf565b335f526009602052815f2055600a6020525f208054906001600160801b0390816107aa8582861661193a565b50346103ef575f3660031901126103ef57602090516001600160401b037f0000000000000000000000000000000000000000000000000000000000000000168152f35b50346103ef575f3660031901126103ef57517f00000000000000000000000000000000000000000000000000000000000000006001600160a01b03168152602090f35b5090346103ef5760603660031901126103ef57610cd0611677565b602435906001600160401b03908183168093036103ef576044359182168092036103ef576008546001600160a01b03919082163303610e4f571692835f52600d602052610d50855f20610d41610d258661248d565b610d49610d318761248d565b91610d4160018601918254611ff7565b809155611d68565b8254611ff7565b8054608081901c808410610e2c5750506001600160801b0381541690555b5f838152600c60205284902080546001600160801b0393849081831690818110610e0f575050505050825f52600c602052835f206001600160801b031981541690555b825f52600b602052835f2091825491818316808210155f14610dec575050505f9283525050600b6020522080546001600160801b0319169055005b9091939550610dfc929450611b48565b6001600160801b03199092169116179055005b610e1891611b48565b16906001600160801b031916179055610db1565b6001600160801b0390610e4185831992611b48565b60801b169116179055610d6e565b85516303df658960e61b81528590fd5b346103ef575f3660031901126103ef57610e77611bbe565b005b50346103ef57806003193601126103ef57610e92611677565b91602435928315158094036103ef576001600160a01b03917f000000000000000000000000000000000000000000000000000000000000000083163303610eef5750165f52600e6020525f209060ff801983541691161790555f80f35b8351631966391b60e11b8152fd5b50346103ef575f3660031901126103ef57602090610f19611b79565b9051908152f35b50346103ef575f3660031901126103ef576001600160801b0360209254169051908152f35b50346103ef575f3660031901126103ef57602090516001600160401b037f0000000000000000000000000000000000000000000000000000000000000000168152f35b50346103ef575f3660031901126103ef57517f00000000000000000000000000000000000000000000000000000000000000006001600160a01b03168152602090f35b50346103ef5760203660031901126103ef576020906001600160a01b03610ff0611677565b165f52600e825260ff815f20541690519015158152f35b50346103ef57602090816003193601126103ef57611023611677565b6008546001600160a01b039190821690811561110a579060648596845f979416968793848252600d86528782209661106060018901928354611fa6565b6110708854826008541690611fa6565b600854169054965488519788968795638314c5f560e01b8752860152602485015260448401525af1908115611100575f916110d3575b50809151927f8c24510396cde239a83ac7e0def137bf4d466c30292967872a7e376c3343d52f5f80a38152f35b90508381813d83116110f9575b6110ea8183611a1a565b810103126103ef57515f6110a6565b503d6110e0565b82513d5f823e3d90fd5b835162461bcd60e51b815280870186905260096024820152686e6f20656e67696e6560b81b6044820152606490fd5b50346103ef5760203660031901126103ef576020906001600160a01b0361115e611677565b165f52600c82526001600160801b03815f2054169051908152f35b50346103ef5760203660031901126103ef576020906001600160a01b0361119e611677565b16805f52600c83526001600160801b0390816127106111ec82865f2054166001600160401b037f00000000000000000000000000000000000000000000000000000000000000001690611b35565b0416905f52600b845281835f205416818110155f146112115750505f915b5191168152f35b61121a91611b48565b9161120a565b50346103ef5760203660031901126103ef5761123e60209235611aec565b905491519160018060a01b039160031b1c168152f35b5090346103ef5760203660031901126103ef5761126f611677565b6001600160a01b03917f000000000000000000000000000000000000000000000000000000000000000083163303610eef57600854938385166112ec5750501680916bffffffffffffffffffffffff60a01b16176008557f3f0723dec6e79bd3a158cf38167a46efcdf471cb3f8e945d6f51dc7c9d6a75655f80a2005b906020606492519162461bcd60e51b835282015260036024820152621cd95d60ea1b6044820152fd5b50346103ef576001600160401b039061136861134c610295611336366116dd565b951694611344861515611969565b61060b611bbe565b335f52600d6020526102b26102aa6001855f2001928354611dd0565b335f52600c6020525f209081549061138a6001600160801b039182841661193a565b16906001600160801b031916179055337fb6196b6783bd399556c99870c04dd5637c27d43fa879217db7ece53dce7f45775f80a2005b50346103ef575f3660031901126103ef57517f00000000000000000000000000000000000000000000000000000000000000006001600160a01b03168152602090f35b50346103ef575f3660031901126103ef57517f00000000000000000000000000000000000000000000000000000000000000006001600160a01b03168152602090f35b50346103ef575f3660031901126103ef5760085490516001600160a01b039091168152602090f35b50346103ef575f3660031901126103ef576020906001600160801b03600554169051908152f35b50346103ef575f3660031901126103ef576020915460801c9051908152f35b50346103ef5760203660031901126103ef576080906001600160a01b036114d9611677565b165f52600d602052805f20906009602052805f2054918054916002600183015492015492815194855260208501528301526060820152f35b50346103ef575f3660031901126103ef57602090516001600160401b037f0000000000000000000000000000000000000000000000000000000000000000168152f35b5090346103ef576115ca916001600160401b03611570366116a3565b959091335f52600e60205261158a60ff865f205416611901565b611592611bbe565b61159b81611d18565b6115a487611d68565b60018060a01b03811696875f52600d60205261050a6102aa6001885f2001928354611dd0565b1690835f52600c6020525f208054906001600160801b0390816115ef8582861661193a565b166001600160801b031980941617905561160d84549382851661193a565b1691161790557fb6196b6783bd399556c99870c04dd5637c27d43fa879217db7ece53dce7f45775f80a2005b9050346103ef5760203660031901126103ef576020916001600160801b03906001600160a01b03611668611677565b165f52600b84525f2054168152f35b600435906001600160a01b03821682036103ef57565b600435906001600160401b03821682036103ef57565b60609060031901126103ef576004356001600160a01b03811681036103ef57906024356001600160401b03811681036103ef579060443590565b60031991906040838201126103ef576001600160401b039060043582811681036103ef57936024359283116103ef57826080920301126103ef5760040190565b346103ef576020806003193601126103ef5761173761168d565b90611740611bbe565b335f52600a81526001600160801b03916040906001600160401b0384835f20541691168091106118c8579161184f81948461177b5f9661248d565b91338752600985526117908387892054611ff7565b61179981611d68565b6117a33382611edf565b3388526009865286882055600a855285872090815491816117c685828616611b48565b166001600160801b03198094161790556004549281841690826117ec8660801c84611b48565b168111156118ae575b50505050507f0000000000000000000000000000000000000000000000000000000000000000906118268282611fa6565b845163fe3f670d60e01b8152336004820152602481019190915294859283919082906044820190565b03926001600160a01b03165af19081156103aa5750611890575b337f3f520b67a8bac399c7508fca97d35957a949b799c3717c415bb07a7b072a270c5f80a2005b816118a692903d106103a3576103938183611a1a565b505f80611869565b6118b791611b48565b169116176004555f808080806117f5565b815162461bcd60e51b8152600481018490526012602482015271496e73756666696369656e74537570706c7960701b6044820152606490fd5b1561190857565b60405162461bcd60e51b815260206004820152600a6024820152693737ba103937baba32b960b11b6044820152606490fd5b9190916001600160801b038080941691160191821161195557565b634e487b7160e01b5f52601160045260245ffd5b1561197057565b60405162461bcd60e51b815260206004820152600a60248201526916995c9bd05b5bdd5b9d60b21b6044820152606490fd5b608081019081106001600160401b038211176119bd57604052565b634e487b7160e01b5f52604160045260245ffd5b6001600160401b0381116119bd57604052565b606081019081106001600160401b038211176119bd57604052565b602081019081106001600160401b038211176119bd57604052565b90601f801991011681019081106001600160401b038211176119bd57604052565b359060ff821682036103ef57565b91906080838203126103ef5760405192611a62846119a2565b83813581526020611a74818401611a3b565b81830152611a8460408401611a3b565b604083015260608301356001600160401b03938482116103ef57019084601f830112156103ef5781359384116119bd5760405194611acb601f8601601f1916830187611a1a565b8486528185840101116103ef5783606094825f940183880137850101520152565b600754811015611b215760075f527fa66cc928b5edb82af9bd49922954155ab7b0942694bea4ce44661d9a8736c68801905f90565b634e487b7160e01b5f52603260045260245ffd5b8181029291811591840414171561195557565b6001600160801b03918216908216039190821161195557565b908160209103126103ef575180151581036103ef5790565b6004546001600160801b038116908115611bb85760801c906127109182810290808204841490151715611955570481811115611bb3575090565b905090565b50505f90565b6005546001600160801b0380821691824203924284116119555742148015611cd2575b611cbd5750611bee611b79565b906105dc9180830292830403611955576127106101f492048201809211611955577f6c1b4226c1c075758d52f5c0f36de14ce8870265c7a31e93935594bad98acb96928160409364496cebb800611c5560045494611c508660801c9485611b35565b611b35565b049081611c89575b505050504216806001600160801b0319600554161760055560045460801c9082519182526020820152a1565b8280611caf931691611ca4836001600160801b03199261193a565b60801b16941661193a565b16176004555f818180611c5d565b91504216906001600160801b03191617600555565b5060045460801c15611be1565b15611ce657565b60405162461bcd60e51b815260206004820152600a60248201526909898a8ac84e4cac2c6d60b31b6044820152606490fd5b60018060a01b0381165f52600d60205260405f2090815415611d38575050565b611d6691611d495f54808355611d68565b611d54828254611edf565b61050a60015f54920191808355611d68565b565b73ea30c4b8b44078bbf8a6ef5b9f1ec1626c7848d9803b156103ef57604051631974142760e21b815260048101929092523060248301525f908290818381604481015b03925af18015611dc557611dbc5750565b611d66906119d1565b6040513d5f823e3d90fd5b908115611ecf575b8015611ec1575b60405191611dec836119e4565b600283526040366020850137611e0183612470565b52611e0b8261247d565b526020611e5560405192611e1e846119ff565b5f8452611e676040519485938493631888debd60e01b8552600560048601526008602486015260806044860152608485019061232a565b8381036003190160648501529061232a565b03815f73ea30c4b8b44078bbf8a6ef5b9f1ec1626c7848d95af1908115611dc5575f91611e92575090565b90506020813d602011611eb9575b81611ead60209383611a1a565b810103126103ef575190565b3d9150611ea0565b50611eca6124fe565b611ddf565b9050611ed96124fe565b90611dd8565b73ea30c4b8b44078bbf8a6ef5b9f1ec1626c7848d991823b156103ef57604051631974142760e21b815260048101929092526001600160a01b03166024820152905f90829081838160448101611dab565b60ff60408201511660058103611f875750611f8490611f4d612390565b50805190606060ff6020830151169101519060405192611f6c846119a2565b835260208301526005604083015260608201526123b4565b90565b604490604051906367cf307160e01b8252600482015260056024820152fd5b73ea30c4b8b44078bbf8a6ef5b9f1ec1626c7848d991823b156103ef576040516346ce4e4960e11b815260048101929092526001600160a01b03166024820152905f90829081838160448101611dab565b90811561208a575b801561207c575b60405191612013836119e4565b60028352604036602085013761202883612470565b526120328261247d565b526020611e5560405192612045846119ff565b5f8452611e676040519485938493631888debd60e01b8552600560048601526007602486015260806044860152608485019061232a565b506120856124fe565b612006565b90506120946124fe565b90611fff565b6001600160a01b0381165f818152600960205260409020805490929190156120c157505050565b6120d2611d66935f54809155611d68565b5f52600960205260405f2054611edf565b908115612176575b8015612168575b604051916120ff836119e4565b60028352604036602085013761211483612470565b5261211e8261247d565b526020611e5560405192612131846119ff565b5f8452611e676040519485938493631888debd60e01b8552600560048601526012602486015260806044860152608485019061232a565b506121716124fe565b6120f2565b90506121806124fe565b906120eb565b91908215612240575b8015612232575b8115612222575b604051926121aa846119a2565b6003845260603660208601376121bf84612470565b526121c98361247d565b52815160021015611b215760608201526020611e55604051926121eb846119ff565b5f8452611e676040519485938493631888debd60e01b8552600560048601526004602486015260806044860152608485019061232a565b905061222c6124fe565b9061219d565b5061223b6124fe565b612196565b915060405161224e816119ff565b5f81526040519061225e826119a2565b6003825260603660208401375f61227483612470565b525f61227f8361247d565b52815160021015611b2157611e556020915f60608501526122c96040519485938493631888debd60e01b85525f6004860152601a602486015260806044860152608485019061232a565b03815f73ea30c4b8b44078bbf8a6ef5b9f1ec1626c7848d95af1908115611dc5575f916122f8575b509161218f565b90506020813d602011612322575b8161231360209383611a1a565b810103126103ef57515f6122f1565b3d9150612306565b9081518082526020808093019301915f5b828110612349575050505090565b83518552938101939281019260010161233b565b9091612382611f849360058452601a602085015260806040850152608084019061232a565b91606081840391015261232a565b6040519061239d826119a2565b606080835f81525f60208201525f60408201520152565b606090604051906313fce3b160e11b825260406004830152805160448301528160e481602080968560ff838098015116606485015260ff60408201511660848501520151608060a484015280519182918260c4860152018484015e5f838284010152336024830152601f801991011681010301815f73ea30c4b8b44078bbf8a6ef5b9f1ec1626c7848d95af1918215611dc5575f9261245257505090565b90809250813d8311612469575b611ead8183611a1a565b503d61245f565b805115611b215760200190565b805160011015611b215760400190565b604051612499816119ff565b5f8152604051916124a9836119a2565b6003835260603660208501376124be83612470565b5260056124ca8361247d565b52815160021015611b21575f6060830152604051631888debd60e01b81529160209183918291611e6791906004840161235d565b60405161250a816119ff565b5f81526040519061251a826119a2565b6003825260603660208401375f6124be8361247056fea2646970667358221220f38fe061c0c2e429e2d59e9af0543619a5bc9266e132cedce73514d6a6e6306364736f6c63430008190033",
  "linkReferences": {},
  "deployedLinkReferences": {}
}