{
  "_format": "hh-sol-artifact-1",
  "contractName": "ObscuraCreditMarket",
  "sourceName": "contracts/credit/ObscuraCreditMarket.sol",
  "abi": [
    {
      "inputs": [
        {
          "internalType": "address",
          "name": "_loanAsset",
          "type": "address"
        },
        {
          "internalType": "address",
          "name": "_collateralAsset",
          "type": "address"
        },
        {
          "internalType": "address",
          "name": "_oracle",
          "type": "address"
        },
        {
          "internalType": "address",
          "name": "_irm",
          "type": "address"
        },
        {
          "internalType": "uint64",
          "name": "_lltvBps",
          "type": "uint64"
        },
        {
          "internalType": "uint64",
          "name": "_liqBonusBps",
          "type": "uint64"
        },
        {
          "internalType": "uint64",
          "name": "_liqThresholdBps",
          "type": "uint64"
        }
      ],
      "stateMutability": "nonpayable",
      "type": "constructor"
    },
    {
      "inputs": [
        {
          "internalType": "uint8",
          "name": "got",
          "type": "uint8"
        },
        {
          "internalType": "uint8",
          "name": "expected",
          "type": "uint8"
        }
      ],
      "name": "InvalidEncryptedInput",
      "type": "error"
    },
    {
      "inputs": [],
      "name": "NotAuctionEngine",
      "type": "error"
    },
    {
      "inputs": [],
      "name": "NotFactory",
      "type": "error"
    },
    {
      "inputs": [
        {
          "internalType": "int32",
          "name": "value",
          "type": "int32"
        }
      ],
      "name": "SecurityZoneOutOfBounds",
      "type": "error"
    },
    {
      "inputs": [],
      "name": "WrongCaller",
      "type": "error"
    },
    {
      "anonymous": false,
      "inputs": [
        {
          "indexed": false,
          "internalType": "uint128",
          "name": "newTotalBorrowAssets",
          "type": "uint128"
        },
        {
          "indexed": false,
          "internalType": "uint128",
          "name": "ts",
          "type": "uint128"
        }
      ],
      "name": "Accrued",
      "type": "event"
    },
    {
      "anonymous": false,
      "inputs": [
        {
          "indexed": true,
          "internalType": "address",
          "name": "engine",
          "type": "address"
        }
      ],
      "name": "AuctionEngineSet",
      "type": "event"
    },
    {
      "anonymous": false,
      "inputs": [
        {
          "indexed": true,
          "internalType": "address",
          "name": "user",
          "type": "address"
        }
      ],
      "name": "Borrowed",
      "type": "event"
    },
    {
      "anonymous": false,
      "inputs": [
        {
          "indexed": true,
          "internalType": "address",
          "name": "user",
          "type": "address"
        }
      ],
      "name": "CollateralSupplied",
      "type": "event"
    },
    {
      "anonymous": false,
      "inputs": [
        {
          "indexed": true,
          "internalType": "address",
          "name": "user",
          "type": "address"
        }
      ],
      "name": "CollateralWithdrawn",
      "type": "event"
    },
    {
      "anonymous": false,
      "inputs": [
        {
          "indexed": true,
          "internalType": "address",
          "name": "borrower",
          "type": "address"
        },
        {
          "indexed": true,
          "internalType": "uint256",
          "name": "auctionId",
          "type": "uint256"
        }
      ],
      "name": "LiquidationOpened",
      "type": "event"
    },
    {
      "anonymous": false,
      "inputs": [
        {
          "indexed": true,
          "internalType": "address",
          "name": "user",
          "type": "address"
        }
      ],
      "name": "Repaid",
      "type": "event"
    },
    {
      "anonymous": false,
      "inputs": [
        {
          "indexed": true,
          "internalType": "address",
          "name": "user",
          "type": "address"
        }
      ],
      "name": "Supplied",
      "type": "event"
    },
    {
      "anonymous": false,
      "inputs": [
        {
          "indexed": true,
          "internalType": "address",
          "name": "user",
          "type": "address"
        }
      ],
      "name": "Withdrew",
      "type": "event"
    },
    {
      "inputs": [],
      "name": "accrueInterest",
      "outputs": [],
      "stateMutability": "nonpayable",
      "type": "function"
    },
    {
      "inputs": [
        {
          "internalType": "address",
          "name": "borrower",
          "type": "address"
        },
        {
          "internalType": "uint64",
          "name": "seizedColl",
          "type": "uint64"
        },
        {
          "internalType": "uint64",
          "name": "repaidDebt",
          "type": "uint64"
        }
      ],
      "name": "applyLiquidation",
      "outputs": [],
      "stateMutability": "nonpayable",
      "type": "function"
    },
    {
      "inputs": [],
      "name": "auctionEngine",
      "outputs": [
        {
          "internalType": "address",
          "name": "",
          "type": "address"
        }
      ],
      "stateMutability": "view",
      "type": "function"
    },
    {
      "inputs": [
        {
          "internalType": "uint64",
          "name": "amtPlain",
          "type": "uint64"
        },
        {
          "components": [
            {
              "internalType": "uint256",
              "name": "ctHash",
              "type": "uint256"
            },
            {
              "internalType": "uint8",
              "name": "securityZone",
              "type": "uint8"
            },
            {
              "internalType": "uint8",
              "name": "utype",
              "type": "uint8"
            },
            {
              "internalType": "bytes",
              "name": "signature",
              "type": "bytes"
            }
          ],
          "internalType": "struct InEuint64",
          "name": "encAmt",
          "type": "tuple"
        },
        {
          "components": [
            {
              "internalType": "uint256",
              "name": "ctHash",
              "type": "uint256"
            },
            {
              "internalType": "uint8",
              "name": "securityZone",
              "type": "uint8"
            },
            {
              "internalType": "uint8",
              "name": "utype",
              "type": "uint8"
            },
            {
              "internalType": "bytes",
              "name": "signature",
              "type": "bytes"
            }
          ],
          "internalType": "struct InEaddress",
          "name": "",
          "type": "tuple"
        }
      ],
      "name": "borrow",
      "outputs": [],
      "stateMutability": "nonpayable",
      "type": "function"
    },
    {
      "inputs": [
        {
          "internalType": "uint256",
          "name": "i",
          "type": "uint256"
        }
      ],
      "name": "borrowerAt",
      "outputs": [
        {
          "internalType": "address",
          "name": "",
          "type": "address"
        }
      ],
      "stateMutability": "view",
      "type": "function"
    },
    {
      "inputs": [],
      "name": "borrowersLength",
      "outputs": [
        {
          "internalType": "uint256",
          "name": "",
          "type": "uint256"
        }
      ],
      "stateMutability": "view",
      "type": "function"
    },
    {
      "inputs": [],
      "name": "collateralAsset",
      "outputs": [
        {
          "internalType": "address",
          "name": "",
          "type": "address"
        }
      ],
      "stateMutability": "view",
      "type": "function"
    },
    {
      "inputs": [],
      "name": "factory",
      "outputs": [
        {
          "internalType": "address",
          "name": "",
          "type": "address"
        }
      ],
      "stateMutability": "view",
      "type": "function"
    },
    {
      "inputs": [
        {
          "internalType": "address",
          "name": "u",
          "type": "address"
        }
      ],
      "name": "getEncryptedSupplyShares",
      "outputs": [
        {
          "internalType": "euint64",
          "name": "",
          "type": "bytes32"
        }
      ],
      "stateMutability": "view",
      "type": "function"
    },
    {
      "inputs": [
        {
          "internalType": "address",
          "name": "user",
          "type": "address"
        }
      ],
      "name": "getPlainBorrow",
      "outputs": [
        {
          "internalType": "uint128",
          "name": "",
          "type": "uint128"
        }
      ],
      "stateMutability": "view",
      "type": "function"
    },
    {
      "inputs": [
        {
          "internalType": "address",
          "name": "user",
          "type": "address"
        }
      ],
      "name": "getPlainCollateral",
      "outputs": [
        {
          "internalType": "uint128",
          "name": "",
          "type": "uint128"
        }
      ],
      "stateMutability": "view",
      "type": "function"
    },
    {
      "inputs": [
        {
          "internalType": "address",
          "name": "user",
          "type": "address"
        }
      ],
      "name": "getPosition",
      "outputs": [
        {
          "internalType": "euint64",
          "name": "encSupplyShares",
          "type": "bytes32"
        },
        {
          "internalType": "euint64",
          "name": "borrowShares",
          "type": "bytes32"
        },
        {
          "internalType": "euint64",
          "name": "collateral",
          "type": "bytes32"
        },
        {
          "internalType": "eaddress",
          "name": "disburseTo",
          "type": "bytes32"
        }
      ],
      "stateMutability": "view",
      "type": "function"
    },
    {
      "inputs": [
        {
          "internalType": "address",
          "name": "",
          "type": "address"
        }
      ],
      "name": "hasBorrow",
      "outputs": [
        {
          "internalType": "bool",
          "name": "",
          "type": "bool"
        }
      ],
      "stateMutability": "view",
      "type": "function"
    },
    {
      "inputs": [],
      "name": "irm",
      "outputs": [
        {
          "internalType": "address",
          "name": "",
          "type": "address"
        }
      ],
      "stateMutability": "view",
      "type": "function"
    },
    {
      "inputs": [
        {
          "internalType": "address",
          "name": "",
          "type": "address"
        }
      ],
      "name": "isRepayRouter",
      "outputs": [
        {
          "internalType": "bool",
          "name": "",
          "type": "bool"
        }
      ],
      "stateMutability": "view",
      "type": "function"
    },
    {
      "inputs": [],
      "name": "lastAccrualTs",
      "outputs": [
        {
          "internalType": "uint128",
          "name": "",
          "type": "uint128"
        }
      ],
      "stateMutability": "view",
      "type": "function"
    },
    {
      "inputs": [],
      "name": "liqBonusBps",
      "outputs": [
        {
          "internalType": "uint64",
          "name": "",
          "type": "uint64"
        }
      ],
      "stateMutability": "view",
      "type": "function"
    },
    {
      "inputs": [],
      "name": "liqThresholdBps",
      "outputs": [
        {
          "internalType": "uint64",
          "name": "",
          "type": "uint64"
        }
      ],
      "stateMutability": "view",
      "type": "function"
    },
    {
      "inputs": [
        {
          "internalType": "address",
          "name": "borrower",
          "type": "address"
        }
      ],
      "name": "liquidationOpen",
      "outputs": [
        {
          "internalType": "uint256",
          "name": "auctionId",
          "type": "uint256"
        }
      ],
      "stateMutability": "nonpayable",
      "type": "function"
    },
    {
      "inputs": [],
      "name": "lltvBps",
      "outputs": [
        {
          "internalType": "uint64",
          "name": "",
          "type": "uint64"
        }
      ],
      "stateMutability": "view",
      "type": "function"
    },
    {
      "inputs": [],
      "name": "loanAsset",
      "outputs": [
        {
          "internalType": "address",
          "name": "",
          "type": "address"
        }
      ],
      "stateMutability": "view",
      "type": "function"
    },
    {
      "inputs": [
        {
          "internalType": "address",
          "name": "user",
          "type": "address"
        }
      ],
      "name": "maxBorrowable",
      "outputs": [
        {
          "internalType": "uint128",
          "name": "",
          "type": "uint128"
        }
      ],
      "stateMutability": "view",
      "type": "function"
    },
    {
      "inputs": [
        {
          "internalType": "uint64",
          "name": "amtPlain",
          "type": "uint64"
        }
      ],
      "name": "notifySupply",
      "outputs": [],
      "stateMutability": "nonpayable",
      "type": "function"
    },
    {
      "inputs": [],
      "name": "oracle",
      "outputs": [
        {
          "internalType": "address",
          "name": "",
          "type": "address"
        }
      ],
      "stateMutability": "view",
      "type": "function"
    },
    {
      "inputs": [
        {
          "internalType": "uint64",
          "name": "amtPlain",
          "type": "uint64"
        },
        {
          "components": [
            {
              "internalType": "uint256",
              "name": "ctHash",
              "type": "uint256"
            },
            {
              "internalType": "uint8",
              "name": "securityZone",
              "type": "uint8"
            },
            {
              "internalType": "uint8",
              "name": "utype",
              "type": "uint8"
            },
            {
              "internalType": "bytes",
              "name": "signature",
              "type": "bytes"
            }
          ],
          "internalType": "struct InEuint64",
          "name": "encAmt",
          "type": "tuple"
        }
      ],
      "name": "repay",
      "outputs": [],
      "stateMutability": "nonpayable",
      "type": "function"
    },
    {
      "inputs": [
        {
          "internalType": "address",
          "name": "borrower",
          "type": "address"
        },
        {
          "internalType": "uint64",
          "name": "amtPlain",
          "type": "uint64"
        },
        {
          "internalType": "euint64",
          "name": "handle",
          "type": "bytes32"
        }
      ],
      "name": "repayFromHook",
      "outputs": [],
      "stateMutability": "nonpayable",
      "type": "function"
    },
    {
      "inputs": [
        {
          "internalType": "address",
          "name": "_engine",
          "type": "address"
        }
      ],
      "name": "setAuctionEngine",
      "outputs": [],
      "stateMutability": "nonpayable",
      "type": "function"
    },
    {
      "inputs": [
        {
          "internalType": "address",
          "name": "router",
          "type": "address"
        },
        {
          "internalType": "bool",
          "name": "ok",
          "type": "bool"
        }
      ],
      "name": "setRepayRouter",
      "outputs": [],
      "stateMutability": "nonpayable",
      "type": "function"
    },
    {
      "inputs": [
        {
          "internalType": "uint64",
          "name": "amtPlain",
          "type": "uint64"
        },
        {
          "components": [
            {
              "internalType": "uint256",
              "name": "ctHash",
              "type": "uint256"
            },
            {
              "internalType": "uint8",
              "name": "securityZone",
              "type": "uint8"
            },
            {
              "internalType": "uint8",
              "name": "utype",
              "type": "uint8"
            },
            {
              "internalType": "bytes",
              "name": "signature",
              "type": "bytes"
            }
          ],
          "internalType": "struct InEuint64",
          "name": "encAmt",
          "type": "tuple"
        }
      ],
      "name": "supply",
      "outputs": [],
      "stateMutability": "nonpayable",
      "type": "function"
    },
    {
      "inputs": [
        {
          "internalType": "uint64",
          "name": "amtPlain",
          "type": "uint64"
        },
        {
          "components": [
            {
              "internalType": "uint256",
              "name": "ctHash",
              "type": "uint256"
            },
            {
              "internalType": "uint8",
              "name": "securityZone",
              "type": "uint8"
            },
            {
              "internalType": "uint8",
              "name": "utype",
              "type": "uint8"
            },
            {
              "internalType": "bytes",
              "name": "signature",
              "type": "bytes"
            }
          ],
          "internalType": "struct InEuint64",
          "name": "encAmt",
          "type": "tuple"
        }
      ],
      "name": "supplyCollateral",
      "outputs": [],
      "stateMutability": "nonpayable",
      "type": "function"
    },
    {
      "inputs": [
        {
          "internalType": "address",
          "name": "borrower",
          "type": "address"
        },
        {
          "internalType": "uint64",
          "name": "amtPlain",
          "type": "uint64"
        },
        {
          "internalType": "euint64",
          "name": "handle",
          "type": "bytes32"
        }
      ],
      "name": "supplyCollateralFromHook",
      "outputs": [],
      "stateMutability": "nonpayable",
      "type": "function"
    },
    {
      "inputs": [],
      "name": "totalBorrowAssets",
      "outputs": [
        {
          "internalType": "uint128",
          "name": "",
          "type": "uint128"
        }
      ],
      "stateMutability": "view",
      "type": "function"
    },
    {
      "inputs": [],
      "name": "totalSupplyAssets",
      "outputs": [
        {
          "internalType": "uint128",
          "name": "",
          "type": "uint128"
        }
      ],
      "stateMutability": "view",
      "type": "function"
    },
    {
      "inputs": [],
      "name": "utilizationBps",
      "outputs": [
        {
          "internalType": "uint256",
          "name": "",
          "type": "uint256"
        }
      ],
      "stateMutability": "view",
      "type": "function"
    },
    {
      "inputs": [
        {
          "internalType": "uint64",
          "name": "amtPlain",
          "type": "uint64"
        }
      ],
      "name": "withdraw",
      "outputs": [],
      "stateMutability": "nonpayable",
      "type": "function"
    },
    {
      "inputs": [
        {
          "internalType": "uint64",
          "name": "amtPlain",
          "type": "uint64"
        },
        {
          "components": [
            {
              "internalType": "uint256",
              "name": "ctHash",
              "type": "uint256"
            },
            {
              "internalType": "uint8",
              "name": "securityZone",
              "type": "uint8"
            },
            {
              "internalType": "uint8",
              "name": "utype",
              "type": "uint8"
            },
            {
              "internalType": "bytes",
              "name": "signature",
              "type": "bytes"
            }
          ],
          "internalType": "struct InEuint64",
          "name": "encAmt",
          "type": "tuple"
        }
      ],
      "name": "withdrawCollateral",
      "outputs": [],
      "stateMutability": "nonpayable",
      "type": "function"
    },
    {
      "inputs": [
        {
          "internalType": "uint64",
          "name": "amtPlain",
          "type": "uint64"
        }
      ],
      "name": "withdrawToVault",
      "outputs": [],
      "stateMutability": "nonpayable",
      "type": "function"
    }
  ],
  "bytecode": "0x610180604090808252346103575760e081612b5780380380916100228285610494565b83398101031261035757610035816104b7565b916020926100448484016104b7565b916100508185016104b7565b9161005d606086016104b7565b9561006a608087016104cb565b9661008360c061007c60a08a016104cb565b98016104cb565b946001600160a01b038481161515908161043e575b5015610414576001600160401b03898116979088151580610409575b156103df5787169488861015806103d3575b156103a95760805260a05260c05260e05261010096875261012095865261014093845233610160908152600580546001600160801b031916426001600160801b0316178155845191966101188361044a565b5f835285519161012783610479565b60038352606036868501375f61013c8461066c565b52806101478461068d565b525f6101528461069d565b528651918261019a610187631888debd60e01b97888452856004850152601a6024850152608060448501526084840190610639565b6003199687848303016064850152610639565b0392868173ea30c4b8b44078bbf8a6ef5b9f1ec1626c7848d995815f885af190811561039f57908795949392915f9161036c575b50956101f56101ec5f936101e78a6102689b87556104df565b61054c565b806001556104df565b6102778a51956102048761044a565b8387528b5161021281610479565b600381526060368a8301376127106102298261066c565b52856102348261068d565b528461023f8261069d565b528c51998a988997889687526004870152601a6024870152608060448701526084860190610639565b91848303016064850152610639565b03925af1918215610362575f9261032e575b50506102a8916101e78261029f936002556104df565b806003556104df565b51926124a994856106ae86396080518581816109880152818161133b0152611763015260a0518581816102e40152610bed015260c05185610f03015260e0518561137e01525184818161022b0152818161087b01528181610bb5015261112d0152518361149701525182610ecb015251818181610ad601528181610e1301526111e10152f35b90809250813d831161035b575b6103458183610494565b810103126103575751816101e7610289565b5f80fd5b503d61033b565b84513d5f823e3d90fd5b8681939792503d8311610398575b6103848183610494565b8101031261035757518694906101f56101ce565b503d61037a565b89513d5f823e3d90fd5b865162461bcd60e51b815260048082018790526024820152631b1a5c5560e21b6044820152606490fd5b506127108611156100c6565b865162461bcd60e51b8152600480820187905260248201526336363a3b60e11b6044820152606490fd5b5061271089106100b4565b845162461bcd60e51b815260048082018590526024820152637a65726f60e01b6044820152606490fd5b9050871615155f610098565b602081019081106001600160401b0382111761046557604052565b634e487b7160e01b5f52604160045260245ffd5b608081019081106001600160401b0382111761046557604052565b601f909101601f19168101906001600160401b0382119082101761046557604052565b51906001600160a01b038216820361035757565b51906001600160401b038216820361035757565b73ea30c4b8b44078bbf8a6ef5b9f1ec1626c7848d990813b15610357575f91604483926040519485938492631974142760e21b845260048401523060248401525af180156105415761052e5750565b6001600160401b03811161046557604052565b6040513d5f823e3d90fd5b60206105cd60405161055d8161044a565b5f81526040519361056d85610479565b60038552606036858701376105818561066c565b52600561058d8561068d565b525f6105988561069d565b526105df6040519485938493631888debd60e01b855260056004860152601a6024860152608060448601526084850190610639565b83810360031901606485015290610639565b03815f73ea30c4b8b44078bbf8a6ef5b9f1ec1626c7848d95af1908115610541575f9161060a575090565b90506020813d602011610631575b8161062560209383610494565b81010312610357575190565b3d9150610618565b9081518082526020808093019301915f5b828110610658575050505090565b83518552938101939281019260010161064a565b8051156106795760200190565b634e487b7160e01b5f52603260045260245ffd5b8051600110156106795760400190565b805160021015610679576060019056fe6080604081815260049182361015610015575f80fd5b5f3560e01c9081630391ce76146115a05750806305694f99146114bb5780630c0e717b1461147857806316c197391461141b5780631aad44c2146113fc5780631d52137e146113d55780631fb32141146113ad57806328e8fe7d1461136a5780632977a4ad146113275780632dd769df1461127c57806333542e46146111bb5780634453878c1461118757806353696eb8146110e0578063561d676d146110a05780636862f9b714610f6e5780636e00569914610f32578063750f0acc146103f35780637dc0d1d014610eef5780638eb80efe14610eac57806394877fc414610e87578063975e900e14610e64578063a665823e14610de0578063a6afed9514610dc6578063a979f6b914610c1c578063aabaecd614610bd9578063b3604c9614610b96578063be01942c14610b05578063c45a015514610ac2578063c979132d146107f5578063d26653ad14610713578063d6dd12f4146105e6578063e553be4e14610489578063e55c589414610452578063e73ce2ac14610416578063f06ac3c1146103f8578063f5a85596146103f35763fb395d10146101b6575f80fd5b346103ef576101c436611644565b90926001600160401b03809416936101dd8515156118d0565b335f52602094600c86526001600160801b03918183875f205416106103b3579181610267826127106102518a9997836102278e9b998261033b9f600c8f335f52525f205416611aaf565b16907f00000000000000000000000000000000000000000000000000000000000000001690611a9c565b0416335f52600b875283885f2054161115611c46565b61026f611b25565b61027833611c7f565b335f52600d85526102ba600161029a610295895f209736906119b0565b611e97565b95016102b26102aa878354612017565b808355611ccf565b339054611e46565b335f52600c8552855f20916102d3835492828416611aaf565b16906001600160801b0319161790557f00000000000000000000000000000000000000000000000000000000000000009061030e8284611fc6565b845163fe3f670d60e01b81523391810191825260208201939093529194859283915f918391604090910190565b03926001600160a01b03165af19081156103aa575061037c575b337fe5d1c8c974618db76114a0279933f5451b9a9e715f98bdd9c5a543e81a9268aa5f80a2005b8161039b92903d106103a3575b6103938183611981565b810190611ac8565b505f80610355565b503d610389565b513d5f823e3d90fd5b855162461bcd60e51b81528085018890526016602482015275125b9cdd59999a58da595b9d10dbdb1b185d195c985b60521b6044820152606490fd5b5f80fd5b611684565b50346103ef575f3660031901126103ef576020906007549051908152f35b50346103ef5760203660031901126103ef576020906001600160a01b0361043b6115de565b165f526006825260ff815f20541690519015158152f35b50346103ef5760203660031901126103ef576020906001600160a01b036104776115de565b165f5260098252805f20549051908152f35b50346103ef5761051061049b3661160a565b9491929092335f52600e6020526104b760ff865f205416611868565b6104bf611b25565b6104c881611c7f565b6104d186611ccf565b60018060a01b03811695865f52600d60205261050a6102aa610503885f20936104fb855482612103565b8554906121a6565b8354612017565b54611e46565b80546001600160401b038160801c931692808410155f146105c35750506001600160801b0381541690555b5f838152600b602052829020805490916001600160801b03908183168082106105a2575050505050815f52600b6020525f206001600160801b031981541690555b7f05d1afa4e43dbce3b369dc63aa54be0236311f52799da52a837aeb34453824eb5f80a2005b6105af9293949550611aaf565b16906001600160801b03191617905561057c565b6001600160801b03906105d885831992611aaf565b60801b16911617905561053b565b5090346103ef576102959061063b61061b61060036611644565b61060b959195611b25565b61061433611c7f565b36906119b0565b335f52600d6020526102b26102aa610503875f20936104fb855482612103565b80546001600160401b038160801c931692808410155f146106f05750506001600160801b0381541690555b335f908152600b602052829020805490916001600160801b03908183168082106106cf575050505050335f52600b6020525f206001600160801b031981541690555b337f05d1afa4e43dbce3b369dc63aa54be0236311f52799da52a837aeb34453824eb5f80a2005b6106dc9293949550611aaf565b16906001600160801b0319161790556106a8565b6001600160801b039061070585831992611aaf565b60801b169116179055610666565b50346103ef576001600160401b0361029561076961073d61073336611644565b93909336906119b0565b6107473382611e46565b61074f611b25565b610758336120ba565b335f526009602052845f2054611d37565b61077281611ccf565b61077c3382611e46565b335f526009602052835f20551690600a6020525f208054906001600160801b0390816107aa858286166118a1565b166001600160801b03198094161790556107c88454938285166118a1565b169116179055337f6663c4b4f37934bad95a7e7828d7613470512e596e6278df939ba459ae7e0f635f80a2005b50346103ef57600319906060368301126103ef576108116115f4565b602435906001600160401b03938483116103ef5760808184360301126103ef57604435908582116103ef57608091360301126103ef5783166108548115156118d0565b335f526108a16108c2602095600c87526127106001600160801b0393849283895f205416907f00000000000000000000000000000000000000000000000000000000000000001690611a9c565b0416335f52600b8752826108ba8582895f2054166118a1565b161115611c46565b8554829082908082169060801c808210610aba576108df91611aaf565b1610610a7f576108ed611b25565b6108f633611c7f565b335f52600d8552610922610913610295865f209536908a016119b0565b936102b26102aa868354611d37565b335f5260068552835f20805460ff811615610a11575b5050948495916109b2959392335f52600b8552855f208054908261095e858285166118a1565b166001600160801b031980931617905561097d8454938460801c6118a1565b60801b1691161781557f00000000000000000000000000000000000000000000000000000000000000009061030e8284611fc6565b03926001600160a01b03165af19081156103aa57506109f3575b337f7c2296a8bd586b4860d6bfdd0917f50dffd764d8bfdb183f865296fff404d7095f80a2005b81610a0992903d106103a3576103938183611981565b505f806109cc565b60ff1916600117905560075468010000000000000000811015610a6c5791859691610a478460016109b299979601600755611a53565b81549060031b9033821b9160018060a01b03901b191617905591969581939450610938565b604187634e487b7160e01b5f525260245ffd5b835162461bcd60e51b81528087018690526015602482015274496e73756666696369656e744c697175696469747960581b6044820152606490fd5b50505f6108df565b50346103ef575f3660031901126103ef57517f00000000000000000000000000000000000000000000000000000000000000006001600160a01b03168152602090f35b50346103ef5760203660031901126103ef576001600160401b03610b276115f4565b610b2f611b25565b1690610b57610b3d836123d0565b610b46336120ba565b335f526009602052825f2054611d37565b610b6081611ccf565b610b6a3382611e46565b335f526009602052815f2055600a6020525f208054906001600160801b0390816107aa858286166118a1565b50346103ef575f3660031901126103ef57602090516001600160401b037f0000000000000000000000000000000000000000000000000000000000000000168152f35b50346103ef575f3660031901126103ef57517f00000000000000000000000000000000000000000000000000000000000000006001600160a01b03168152602090f35b5090346103ef5760603660031901126103ef57610c376115de565b602435906001600160401b03908183168093036103ef576044359182168092036103ef576008546001600160a01b03919082163303610db6571692835f52600d602052610cb7855f20610ca8610c8c866123d0565b610cb0610c98876123d0565b91610ca860018601918254612017565b809155611ccf565b8254612017565b8054608081901c808410610d935750506001600160801b0381541690555b5f838152600c60205284902080546001600160801b0393849081831690818110610d76575050505050825f52600c602052835f206001600160801b031981541690555b825f52600b602052835f2091825491818316808210155f14610d53575050505f9283525050600b6020522080546001600160801b0319169055005b9091939550610d63929450611aaf565b6001600160801b03199092169116179055005b610d7f91611aaf565b16906001600160801b031916179055610d18565b6001600160801b0390610da885831992611aaf565b60801b169116179055610cd5565b85516303df658960e61b81528590fd5b346103ef575f3660031901126103ef57610dde611b25565b005b50346103ef57806003193601126103ef57610df96115de565b91602435928315158094036103ef576001600160a01b03917f000000000000000000000000000000000000000000000000000000000000000083163303610e565750165f52600e6020525f209060ff801983541691161790555f80f35b8351631966391b60e11b8152fd5b50346103ef575f3660031901126103ef57602090610e80611ae0565b9051908152f35b50346103ef575f3660031901126103ef576001600160801b0360209254169051908152f35b50346103ef575f3660031901126103ef57602090516001600160401b037f0000000000000000000000000000000000000000000000000000000000000000168152f35b50346103ef575f3660031901126103ef57517f00000000000000000000000000000000000000000000000000000000000000006001600160a01b03168152602090f35b50346103ef5760203660031901126103ef576020906001600160a01b03610f576115de565b165f52600e825260ff815f20541690519015158152f35b50346103ef57602090816003193601126103ef57610f8a6115de565b6008546001600160a01b0391908216908115611071579060648596845f979416968793848252600d865287822096610fc760018901928354611fc6565b610fd78854826008541690611fc6565b600854169054965488519788968795638314c5f560e01b8752860152602485015260448401525af1908115611067575f9161103a575b50809151927f8c24510396cde239a83ac7e0def137bf4d466c30292967872a7e376c3343d52f5f80a38152f35b90508381813d8311611060575b6110518183611981565b810103126103ef57515f61100d565b503d611047565b82513d5f823e3d90fd5b835162461bcd60e51b815280870186905260096024820152686e6f20656e67696e6560b81b6044820152606490fd5b50346103ef5760203660031901126103ef576020906001600160a01b036110c56115de565b165f52600c82526001600160801b03815f2054169051908152f35b50346103ef5760203660031901126103ef576020906001600160a01b036111056115de565b16805f52600c83526001600160801b03908161271061115382865f2054166001600160401b037f00000000000000000000000000000000000000000000000000000000000000001690611a9c565b0416905f52600b845281835f205416818110155f146111785750505f915b5191168152f35b61118191611aaf565b91611171565b50346103ef5760203660031901126103ef576111a560209235611a53565b905491519160018060a01b039160031b1c168152f35b5090346103ef5760203660031901126103ef576111d66115de565b6001600160a01b03917f000000000000000000000000000000000000000000000000000000000000000083163303610e5657600854938385166112535750501680916bffffffffffffffffffffffff60a01b16176008557f3f0723dec6e79bd3a158cf38167a46efcdf471cb3f8e945d6f51dc7c9d6a75655f80a2005b906020606492519162461bcd60e51b835282015260036024820152621cd95d60ea1b6044820152fd5b50346103ef576001600160401b03906112cf6112b361029561129d36611644565b9516946112ab8615156118d0565b61060b611b25565b335f52600d6020526102b26102aa6001855f2001928354611d37565b335f52600c6020525f20908154906112f16001600160801b03918284166118a1565b16906001600160801b031916179055337fb6196b6783bd399556c99870c04dd5637c27d43fa879217db7ece53dce7f45775f80a2005b50346103ef575f3660031901126103ef57517f00000000000000000000000000000000000000000000000000000000000000006001600160a01b03168152602090f35b50346103ef575f3660031901126103ef57517f00000000000000000000000000000000000000000000000000000000000000006001600160a01b03168152602090f35b50346103ef575f3660031901126103ef5760085490516001600160a01b039091168152602090f35b50346103ef575f3660031901126103ef576020906001600160801b03600554169051908152f35b50346103ef575f3660031901126103ef576020915460801c9051908152f35b50346103ef5760203660031901126103ef576080906001600160a01b036114406115de565b165f52600d602052805f20906009602052805f2054918054916002600183015492015492815194855260208501528301526060820152f35b50346103ef575f3660031901126103ef57602090516001600160401b037f0000000000000000000000000000000000000000000000000000000000000000168152f35b5090346103ef57611531916001600160401b036114d73661160a565b959091335f52600e6020526114f160ff865f205416611868565b6114f9611b25565b61150281611c7f565b61150b87611ccf565b60018060a01b03811696875f52600d60205261050a6102aa6001885f2001928354611d37565b1690835f52600c6020525f208054906001600160801b039081611556858286166118a1565b166001600160801b03198094161790556115748454938285166118a1565b1691161790557fb6196b6783bd399556c99870c04dd5637c27d43fa879217db7ece53dce7f45775f80a2005b9050346103ef5760203660031901126103ef576020916001600160801b03906001600160a01b036115cf6115de565b165f52600b84525f2054168152f35b600435906001600160a01b03821682036103ef57565b600435906001600160401b03821682036103ef57565b60609060031901126103ef576004356001600160a01b03811681036103ef57906024356001600160401b03811681036103ef579060443590565b60031991906040838201126103ef576001600160401b039060043582811681036103ef57936024359283116103ef57826080920301126103ef5760040190565b346103ef576020806003193601126103ef5761169e6115f4565b906116a7611b25565b335f52600a81526001600160801b03916040906001600160401b0384835f205416911680911061182f57916117b68194846116e25f966123d0565b91338752600985526116f78387892054612017565b61170081611ccf565b61170a3382611e46565b3388526009865286882055600a8552858720908154918161172d85828616611aaf565b166001600160801b03198094161790556004549281841690826117538660801c84611aaf565b16811115611815575b50505050507f00000000000000000000000000000000000000000000000000000000000000009061178d8282611fc6565b845163fe3f670d60e01b8152336004820152602481019190915294859283919082906044820190565b03926001600160a01b03165af19081156103aa57506117f7575b337f3f520b67a8bac399c7508fca97d35957a949b799c3717c415bb07a7b072a270c5f80a2005b8161180d92903d106103a3576103938183611981565b505f806117d0565b61181e91611aaf565b169116176004555f8080808061175c565b815162461bcd60e51b8152600481018490526012602482015271496e73756666696369656e74537570706c7960701b6044820152606490fd5b1561186f57565b60405162461bcd60e51b815260206004820152600a6024820152693737ba103937baba32b960b11b6044820152606490fd5b9190916001600160801b03808094169116019182116118bc57565b634e487b7160e01b5f52601160045260245ffd5b156118d757565b60405162461bcd60e51b815260206004820152600a60248201526916995c9bd05b5bdd5b9d60b21b6044820152606490fd5b608081019081106001600160401b0382111761192457604052565b634e487b7160e01b5f52604160045260245ffd5b6001600160401b03811161192457604052565b606081019081106001600160401b0382111761192457604052565b602081019081106001600160401b0382111761192457604052565b90601f801991011681019081106001600160401b0382111761192457604052565b359060ff821682036103ef57565b91906080838203126103ef57604051926119c984611909565b838135815260206119db8184016119a2565b818301526119eb604084016119a2565b604083015260608301356001600160401b03938482116103ef57019084601f830112156103ef5781359384116119245760405194611a32601f8601601f1916830187611981565b8486528185840101116103ef5783606094825f940183880137850101520152565b600754811015611a885760075f527fa66cc928b5edb82af9bd49922954155ab7b0942694bea4ce44661d9a8736c68801905f90565b634e487b7160e01b5f52603260045260245ffd5b818102929181159184041417156118bc57565b6001600160801b0391821690821603919082116118bc57565b908160209103126103ef575180151581036103ef5790565b6004546001600160801b038116908115611b1f5760801c9061271091828102908082048414901517156118bc570481811115611b1a575090565b905090565b50505f90565b6005546001600160801b0380821691824203924284116118bc5742148015611c39575b611c245750611b55611ae0565b906105dc91808302928304036118bc576127106101f4920482018092116118bc577f6c1b4226c1c075758d52f5c0f36de14ce8870265c7a31e93935594bad98acb96928160409364496cebb800611bbc60045494611bb78660801c9485611a9c565b611a9c565b049081611bf0575b505050504216806001600160801b0319600554161760055560045460801c9082519182526020820152a1565b8280611c16931691611c0b836001600160801b0319926118a1565b60801b1694166118a1565b16176004555f818180611bc4565b91504216906001600160801b03191617600555565b5060045460801c15611b48565b15611c4d57565b60405162461bcd60e51b815260206004820152600a60248201526909898a8ac84e4cac2c6d60b31b6044820152606490fd5b60018060a01b0381165f52600d60205260405f2090815415611c9f575050565b611ccd91611cb05f54808355611ccf565b611cbb828254611e46565b61050a60015f54920191808355611ccf565b565b73ea30c4b8b44078bbf8a6ef5b9f1ec1626c7848d9803b156103ef57604051631974142760e21b815260048101929092523060248301525f908290818381604481015b03925af18015611d2c57611d235750565b611ccd90611938565b6040513d5f823e3d90fd5b908115611e36575b8015611e28575b60405191611d538361194b565b600283526040366020850137611d68836123b3565b52611d72826123c0565b526020611dbc60405192611d8584611966565b5f8452611dce6040519485938493631888debd60e01b8552600560048601526008602486015260806044860152608485019061234a565b8381036003190160648501529061234a565b03815f73ea30c4b8b44078bbf8a6ef5b9f1ec1626c7848d95af1908115611d2c575f91611df9575090565b90506020813d602011611e20575b81611e1460209383611981565b810103126103ef575190565b3d9150611e07565b50611e31612441565b611d46565b9050611e40612441565b90611d3f565b73ea30c4b8b44078bbf8a6ef5b9f1ec1626c7848d991823b156103ef57604051631974142760e21b815260048101929092526001600160a01b03166024820152905f90829081838160448101611d12565b60409060ff828201511660058103611fa85750606060ff91835190611ebb82611909565b5f825282602093835f86809601525f88820152015260e48151836060878286015116940151885192611eec84611909565b83528183019485528789840160058152606085019283528a51998a9788966313fce3b160e11b88528d6004890152516044880152511660648601525116608484015251608060a484015280519182918260c4860152018484015e5f838284010152336024830152601f801991011681010301815f73ea30c4b8b44078bbf8a6ef5b9f1ec1626c7848d95af19283156103aa57505f92611f8a57505090565b90809250813d8311611fa1575b611e148183611981565b503d611f97565b6044908351906367cf307160e01b8252600482015260056024820152fd5b73ea30c4b8b44078bbf8a6ef5b9f1ec1626c7848d991823b156103ef576040516346ce4e4960e11b815260048101929092526001600160a01b03166024820152905f90829081838160448101611d12565b9081156120aa575b801561209c575b604051916120338361194b565b600283526040366020850137612048836123b3565b52612052826123c0565b526020611dbc6040519261206584611966565b5f8452611dce6040519485938493631888debd60e01b8552600560048601526007602486015260806044860152608485019061234a565b506120a5612441565b612026565b90506120b4612441565b9061201f565b6001600160a01b0381165f818152600960205260409020805490929190156120e157505050565b6120f2611ccd935f54809155611ccf565b5f52600960205260405f2054611e46565b908115612196575b8015612188575b6040519161211f8361194b565b600283526040366020850137612134836123b3565b5261213e826123c0565b526020611dbc6040519261215184611966565b5f8452611dce6040519485938493631888debd60e01b8552600560048601526012602486015260806044860152608485019061234a565b50612191612441565b612112565b90506121a0612441565b9061210b565b91908215612260575b8015612252575b8115612242575b604051926121ca84611909565b6003845260603660208601376121df846123b3565b526121e9836123c0565b52815160021015611a885760608201526020611dbc6040519261220b84611966565b5f8452611dce6040519485938493631888debd60e01b8552600560048601526004602486015260806044860152608485019061234a565b905061224c612441565b906121bd565b5061225b612441565b6121b6565b915060405161226e81611966565b5f81526040519061227e82611909565b6003825260603660208401375f612294836123b3565b525f61229f836123c0565b52815160021015611a8857611dbc6020915f60608501526122e96040519485938493631888debd60e01b85525f6004860152601a602486015260806044860152608485019061234a565b03815f73ea30c4b8b44078bbf8a6ef5b9f1ec1626c7848d95af1908115611d2c575f91612318575b50916121af565b90506020813d602011612342575b8161233360209383611981565b810103126103ef57515f612311565b3d9150612326565b9081518082526020808093019301915f5b828110612369575050505090565b83518552938101939281019260010161235b565b90916123a26123b09360058452601a602085015260806040850152608084019061234a565b91606081840391015261234a565b90565b805115611a885760200190565b805160011015611a885760400190565b6040516123dc81611966565b5f8152604051916123ec83611909565b600383526060366020850137612401836123b3565b52600561240d836123c0565b52815160021015611a88575f6060830152604051631888debd60e01b81529160209183918291611dce91906004840161237d565b60405161244d81611966565b5f81526040519061245d82611909565b6003825260603660208401375f612401836123b356fea26469706673582212205aa204948f1464880484eacfcc01d7064edeb60a5ba045890be1a2bb4a539b9364736f6c63430008190033",
  "linkReferences": {},
  "deployedLinkReferences": {}
}